:020000040800F2
:100000000050002075390008733900087139000864
:1000100071390008713900087139000800000000CA
:10002000000000000000000000000000733900081C
:1000300073390008000000007339000873390008A4
:1000400071390008713900087139000871390008E8
:1000500071390008713900087139000871390008D8
:1000600071390008713900087139000871390008C8
:1000700071390008713900087139000871390008B8
:1000800071390008713900087139000871390008A8
:100090007139000871390008713900087139000898
:1000A0007139000871390008713900087139000888
:1000B0007139000871390008713900087139000878
:1000C0007139000871390008713900087139000868
:1000D0007139000871390008713900087139000858
:1000E0007139000871390008713900087139000848
:1000F0007139000871390008713900087139000838
:100100007139000871390008713900087139000827
:100110007139000871390008713900087139000817
:100120007139000871390008713900087139000807
:1001300071390008713900087139000871390008F7
:1001400071390008713900087139000871390008E7
:1001500008B500F0E1F800F017FD0E4800F01AFCB9
:1001600070B90D4800F09CF9014670B90A4BD87B74
:1001700000F0F4F94FF40051084801F06DFF08BD9C
:100180000146074805F02CF8EBE7064805F028F88B
:10019000ECE700BF64010020500100200010014086
:1001A0001C5F00083C5F000830B58DB02F4B05ADDB
:1001B00093E8030085E8030003AA083393E80300EB
:1001C00082E803002A4C204600F0C4FAEFF31082C4
:1001D00072B6284B013BFDD182F31088BFF36F8FBD
:1001E0002A462146684600F031FB009BC4F80630E1
:1001F000BDF8043063811E4B1B89092B06D91E4AAA
:10020000A2FB0323DB081A4A1381F4E7184CA51D4F
:1002100007A9284600F06CFB0146184804F0E0FFEF
:1002200000230793089309930A930B9303AA21468B
:10023000684600F00BFB009BC4F80630BDF80430A4
:10024000638105E00C4AA2FB0323DB08084A138103
:10025000074B1B89092BF5D807A9094800F048FB73
:100260000146084804F0BCFF0DB030BD0C5F00082B
:1002700064010020808D5B00CDCCCCCC585F0008A1
:100280006A010020645F000810B588B000F0B8FB78
:10029000FFF75EFF00238DF80430182101A800F05D
:1002A00085FD01A800F088FD00F0FAFC0446204618
:1002B00002F06EFEFBE7000008B572B6EFF30580B2
:1002C000C0F308001038044951F8303001EBC00188
:1002D000984762B608BD00BF7C01002008B5014602
:1002E000014804F07DFF08BD8C5F000870B506462C
:1002F0004C6800253CB12368E168304698470543C7
:10030000EDB22469F6E705B170BD3146014804F04D
:1003100067FFF9E7745F000810B5EFF3108472B659
:100320004FF4A8724FF000614FF0005001F0B6FB9F
:100330000023432B08D803F110014FF00052074867
:1003400042F821000133F4E7054B4FF000521A60E8
:1003500084F31088BFF36F8F002010BDB90200082E
:1003600008ED00E010B500240B4B1C604FF4A872A0
:1003700021464FF0005001F007FC2146432909D8DF
:10038000064B074A43F8312003EBC10300225A60B1
:100390000131F3E710BD00BF08ED00E07C01002053
:1003A000DD02000838B5A0B1014603680BB343680D
:1003B000432B21D8836813B300230361EFF3108527
:1003C00072B644680F4800EBC4035A6822B95960FA
:1003D00006E003F097FB1A461369002BFBD111616D
:1003E000094B40F8343085F31088BFF36F8F00203D
:1003F00038BD4FF0FF30FBE76FF00100F8E76FF01A
:100400000200F5E77C010020ED02000810B580B184
:100410000146EFF3108472B64368104A02EBC30240
:100420005368834207D043B11A698A420CD01346FD
:10043000F9E703F067FB0023536084F31088BFF3F0
:100440006F8F4FF0FF3010BD12691A6100200861F4
:1004500084F31088BFF36F8FF5E700BF7C010020A5
:1004600010B50C464FF4003001F046FD0A4804F088
:10047000B7FE012002F00AFD18B923699847012050
:1004800010BD012002F0E6FC02F072FC01460348B8
:1004900004F0A6FEF1E700BFB05F0008BC5F0008F3
:1004A00070B5054602F04CF880B302F009FD002457
:1004B000002C32DD254B1B68002B3ED0002002F0C3
:1004C000A7FC012002F0A4FC292003F09BFA0221E2
:1004D000292003F0EBFA00214FF4003001F0CAFCB0
:1004E0004FF4003001F0ECFCEFF3108472B6002002
:1004F00002F0B0FC012002F0ADFC012002F066FC2D
:1005000084F31088BFF36F8F304670BD287802F0F7
:10051000B9FB686802F01CFCC9E7A30023449A00F9
:100520000B481044C560FFF73DFF061E01DB013498
:10053000BEE7084804F054FEE6E7044B4AF6AA2258
:100540001A60054804F04CFEB8E700BF046C004098
:100550009C030020CC5F0008E45F000810B504464F
:1005600002F006FC044402F0E5FB204602F0C4FB66
:1005700002F0D2FB10BD000038B504460D4681885C
:10058000006801F069FD9DB14FF434720B4BA3FB81
:1005900002135B08082A0ED9013BFDD1A18820680F
:1005A00001F058FD1DB14FF4C873013BFDD138BDBA
:1005B0004FF48752EAE703F0A5FA00BF398EE3381B
:1005C00038B504468188006801F046FD28252B4691
:1005D000013BFDD1A188206801F03CFD013DFDD12A
:1005E000A188206801F047FD4FF4C873013BFDD19D
:1005F000003018BF012038BD08B58188006801F0BF
:100600002BFD08BD70B50446EFF3108672B68188E5
:10061000006801F021FD4FF47A652B46013BFDD1C6
:10062000A188206801F016FD4FF40C73013BFDD149
:10063000A188206801F01FFD013DFDD186F31088DF
:10064000BFF36F8F00B970BD4FF0FF30FBE710B5FF
:1006500004468188006801F0FDFCF023013BFDD1D8
:10066000A188206801F007FD18B12046FFF7CAFFF6
:1006700010BD4FF0FF30FBE7F8B506460D46EFF32F
:10068000108772B600240AE045FA04F101F0010176
:100690003046FFF771FF2823013BFDD10134072CC1
:1006A000F2D987F31088BFF36F8FF8BDF8B506460F
:1006B000EFF3108772B60024254609E03046FFF7B5
:1006C0007FFFA04005432DB22823013BFDD101341B
:1006D000072CF3D987F31088BFF36F8F68B2F8BD8A
:1006E00010B40C0944EA0214038864F30B0303807A
:1006F00012F0800F0CD12B23037101F00F01C1EB1D
:10070000411301EB830101EB8101418010BC704773
:100710002D23037101F00F03013B63F00F03DBB2E4
:10072000DB43DBB2C3EB431203EB820303EB830334
:100730009BB24380E443C4F30B04028864F30B02CE
:100740000280002BE2D1013493B264F30B030380E7
:10075000DCE7000010B5084C2046FFF753FFCC2122
:100760002046FFF789FF44212046FFF785FF034B12
:1007700006221A7010BD00BFB0050020AC05002095
:1007800070B584B005460E46224C2046FFF73AFF6E
:10079000CC212046FFF770FF44212046FFF76CFF75
:1007A000EFF3108272B61C4B013BFDD182F310882F
:1007B000BFF36F8F2046FFF725FFCC212046FFF7C0
:1007C0005BFFBE212046FFF757FF002407E01148DA
:1007D000FFF76CFF04AB234403F8040C0134012C35
:1007E000F5D90C48FFF70EFF9DF80D209DF80C1071
:1007F0006846FFF775FF009AC6F80620BDF804208A
:100800007281D6F806202A607389AB80284604B02E
:1008100070BD00BFB005002000DD6D0038B5054695
:10082000094C2046FFF7EEFE33212046FFF724FF58
:10083000002405E00448FFF739FF2B191873013431
:10084000072CF7D938BD00BFB0050020F0B587B040
:1008500006460D46244B1B78062B0AD0224B00225D
:100860001A7051F8063F03608B888380304607B0CA
:10087000F0BD17461D4C2046FFF7C4FE552120460B
:10088000FFF7FAFE002404E0395D1848FFF7F4FE94
:100890000134072CF8D9BE211448FFF7EDFE0024DF
:1008A00007E01248FFF702FF06AB234403F80C0CE5
:1008B0000134082CF5D90D48FFF7A4FE9DF90C1062
:1008C0009DF90D20D2B2C9B26846FFF709FF009A20
:1008D000C5F80620BDF804206A81D5F806203260EC
:1008E0006B89B380C2E700BFAC050020B0050020D3
:1008F00070B50C464388B3B930230B7001214D1CF1
:100900002E2363540388C3F30B0313BB30236355B7
:100910008D1C6B1C027962550022E254204600F0C7
:10092000C8F8204670BD00214388002BE7D0174D42
:10093000A5FB0362D20802EB820256009B1B9BB20E
:10094000303363544388A5FB0323DB084380013124
:10095000EAE70388C3F30B03002BDAD00188C1F365
:100960000B010B4E86FB01239B1003EB83035A0004
:100970008B1A303363550388C3F30B0286FB0212D4
:10098000921062F30B0303800135E2E7CDCCCCCCAF
:100990006766666608B50268034B1A6082889A80AB
:1009A0001846FFF754FE08BDB005002008B5024800
:1009B000FFF722FE08BD00BFB0050020074B1B78E3
:1009C00043B110B402460C4610462146ABBE00208F
:1009D00010BC70474FF0FF30704700BF0906002081
:1009E0000AB90020704700B585B0019002910392CA
:1009F00001A90520FFF7E2FF05B05DF804FB000048
:100A0000034B01221A70034B00221A70704700BF7B
:100A100009060020B80500200023024A1370024A8C
:100A20001370704709060020B8050020084B1B789A
:100A300003B9704710B5064C204601F0F5F80246A0
:100A400021460220FFF7CCFF0023237010BD00BF1A
:100A5000B8050020F8B506460C460B4801F0E4F84E
:100A600005194F2D08D8084F22463146384601F067
:100A700009F900237B55F8BDFFF7D8FF2246314620
:100A80000220FFF7ADFFF6E7B805002000B583B000
:100A90008DF8070001210DF10700FFF7DBFF9DF83E
:100AA00007300A2B02D003B05DF804FBFFF7BEFF4E
:100AB000F9E7A8B110B5044601F0B6F801382044B2
:100AC00084420CD20378227853402370027853403A
:100AD00000F801392278534004F8013BF0E710BDDB
:100AE0007047000008B5024804F07AFBFEE700BF3B
:100AF0000C60000810B501F0DDFE0024062C06D8BD
:100B0000034B33F8140002F01FF80134F6E710BD70
:100B1000B003002038B5037A03B938BD0446EFF3BB
:100B2000108572B6006801F0A3FA0146237A012B02
:100B300009D0022B0BD0206801F0A3FA85F31088AE
:100B4000BFF36F8FE9E7A088014389B2F3E7A0887C
:100B500021EA000189B2EEE770B50024042C0FD819
:100B6000084E6300234498003518AB88EA79A979C8
:100B7000305801F01FFA2846FFF7CCFF0134EDE7AB
:100B800070BD00BFC003002008B5FFF7B3FFFFF73B
:100B9000E3FF002008BD000038B504460D464FF4C1
:100BA000677001F0D1FF40F29B3001F0CDFF01F002
:100BB00073FA064BAAB223F83420640001342D0CDA
:100BC00023F8245001F070FA38BD00BF046C0040D7
:100BD00043000133034A32F8231032F8300040EA70
:100BE00001407047046C0040000A7047C0B2704773
:100BF00070B505464FF6FF73994208D10E4B00229F
:100C00001146284602F0E6FA002811DB70BD0E46B8
:100C10000A4804F0E5FA0024092CEFDC084B53F8ED
:100C20002430002BEAD03146284698470134F3E7B8
:100C3000044804F0D5FAE9E75D0F00086462000893
:100C40000C0600207C62000810B588B00E4804F045
:100C5000C7FA00F093FE00F01FFF002407940B4B2F
:100C600006930B4B059304900A4B03930A4B029394
:100C70000A4B01934022009201238221204600F07A
:100C800099FD08B010BD00BF3C620008951A00082D
:100C9000E1190008486200084C6200085862000828
:100CA00010B584B04FF480730293124B0193082364
:100CB0000093114B114A1249124802F037F9124CB5
:100CC0002060FFF7C1FF206800F042FE0F49206856
:100CD00002F084FD002808DB0B4C4FF6FF71206802
:100CE000FFF786FF206804B010BD094804F078FAC9
:100CF000F2E700BF9E06002000040020C860000844
:100D00001061000898650008A0070020F10B00089A
:100D10001063000808B5002300E00133092B0CDC48
:100D2000094A52F823201AB18A42F6D1002008BDA0
:100D3000054A42F823100020F9E7044804F050FA6D
:100D40004FF0FF30F3E700BF0C06002058600008AA
:100D500038B5002000E0013009281CDC114C04EB00
:100D6000C004646874B10F4D15F830508D42F2D153
:100D70000C4D05EBC0056D789542ECD19C42EAD153
:100D800000200DE0074C04F8301004EBC000427066
:100D90004360002004E0044804F022FA4FF0FF30E2
:100DA00038BD00BF340600202C60000808B50131B2
:100DB00000F0D0FF08BD0000074B00221A7048B1B8
:100DC00010B501461C461822184600F089FF002382
:100DD000237610BD704700BF84060020F8B5064694
:100DE0000C464D882846FFF7FFFE07462846FFF7CA
:100DF000FDFE05463146464804F0F2F921784548A3
:100E000004F0EEF96178444804F0EAF96188CAB266
:100E1000090A424804F0E4F9A188CAB2090A404824
:100E200004F0DEF9E188CAB2090A3E4804F0D8F9B4
:100E300023780BB1802B19D1802B1BD013B962788A
:100E4000052A59D013B96278092A59D0802B02D1CA
:100E50006378092B58D0344804F0C2F93946334836
:100E600004F0BEF92946324804F0BAF9314804F0DA
:100E7000B7F9F8BD6278062AE0D12F4804F0B0F93E
:100E80007B1E0E2BEAD801A252F823F0C90E0008EF
:100E9000D10E0008D90E0008E10E0008E90E000886
:100EA0005D0E00085D0E00085D0E00085D0E000876
:100EB0005D0E00085D0E00085D0E00085D0E000866
:100EC0005D0E0008F10E00081C4804F089F9C5E722
:100ED0001B4804F085F9C1E71A4804F081F9BDE721
:100EE000194804F07DF9B9E7184804F079F9B5E735
:100EF000174804F075F9B1E7164804F071F9ADE749
:100F0000154804F06DF9A9E7134804F069F9A5E75D
:100F1000605F0008246100082C6100083861000847
:100F20004461000850610008B8610008BC61000815
:100F3000C8610008546500085C6100086861000829
:100F4000706100087861000880610008886100080D
:100F50009061000898610008A86100082DE9F04739
:100F600082B081460D4690469A460A9E002400E0D3
:100F70000134092C18DC154B03EBC4035F689FB1E7
:100F80002B78124A02EBC40149780B4012F8342046
:100F90009342EDD100965346424629464846B8470B
:100FA00003460128E4D80AE02B78802B02D16B7825
:100FB000062B08D029460648FFF710FF02231846E3
:100FC00002B0BDE8F0870223F9E700BF3406002035
:100FD0002860000880F8701280F8712280F8723260
:100FE000704708B500231A461946FFF7F3FF08BDFE
:100FF0001030704702B1704738B50C4605460846B8
:10100000FFF7F6FF8278C37843EA0223E3620379AD
:101010002363002262635B0263622846FFF7E1FFFD
:1010200038BDAAB910B50C460846FFF7E1FF437872
:101030001B0403F4F813827843EA0223C2781343B3
:10104000E36203792363002262635B02236210BDC3
:101050007047CAB910B50C460846FFF7C9FF827839
:10106000C3781B0443EA0263027943EA022342790C
:101070001343E362C279037A43EA02232363002223
:1010800062635B02236210BD704702B1704738B5DE
:101090000C4605460846FFF7ABFF8278C3781B0471
:1010A00043EA0263027943EA022342791343E3628B
:1010B000C279037A43EA022323635B026362284610
:1010C000FFF78FFF38BD02B1704708B5C37D81F8C7
:1010D0003830C38A81F8393043691B0A81F83A30C5
:1010E000436981F83B30002381F83C3081F83D3082
:1010F000022281F83E2081F83F3008234B62FFF73F
:1011000070FF08BDDAB9F0B406460C460B7D4B62A1
:101110000B4D0FCDA063E163226463642B88A4F8B8
:10112000483096F8703284F83A3096F8713284F884
:10113000443096F8723284F84530F0BC70477047FE
:101140006463000872B904234B62032381F83830CA
:10115000002381F8393081F83A300422A1F8422284
:10116000A1F84432704702B1704708B5082381F8EE
:101170003B30C37D81F83C30C38A81F83D30436900
:101180001B0A81F83E30436981F83F30022281F822
:101190004020002381F8413081F8422081F843301B
:1011A0000C234B62FFF71DFF08BD4978FE2903D0D1
:1011B000FF2907D00220704712680021117001201A
:1011C000188070470120704730B583B0054611483C
:1011D00004F006F8104C114B009363790222217938
:1011E000284601F0E2FE0E4B0093E3790222A1793A
:1011F000284601F0DAFE0B4B7F2221212846FFF71B
:10120000A7FD002801DB03B030BD074803F0E8FF6D
:10121000F9E700BF2C640008A4070020AD16000801
:1012200091140008AB1100084064000802B1704737
:1012300070B5054601F138064FF4007200213046C2
:1012400000F0A2FC00246B69A34205D9EB6931468A
:10125000204698470134F6E72846FFF7C2FE70BDE6
:10126000002A7DD12DE9F0410C4680460846FFF763
:10127000BFFE437813F0010F08D0817800294DD0CC
:1012800080295CD0374803F0ABFF45E0242363623C
:10129000354F04F1380607F1200C3D460FCD306084
:1012A0007160B260F3602F4610366545F5D128684D
:1012B0003060D8F80850284600F0B6FC02460828EE
:1012C00028BF0822294604F1400000F0E7FBD8F8C7
:1012D0000C50284600F0A8FC0246102828BF102217
:1012E000294604F1480000F0D9FBD8F810502846F0
:1012F00000F09AFC0246042828BF0422294604F183
:10130000580000F0CBFB2423A4F842320023A4F8B9
:1013100044324046FFF765FEBDE8F0810623636274
:10132000124B1868A0639B88A3870623A4F8423257
:101330000023A4F844324046FFF753FEECE70C23A9
:1013400063620B4B07CBA063E16322640C23A4F818
:1013500042320023A4F844324046FFF742FEDBE766
:10136000704700BF84640008406300082C630008D5
:101370003463000838B505460C461046BAB9002358
:1013800081F8393245F25532A1F83A2245F242321B
:10139000A1F83C22D1F80520C1F83E22A1F8423242
:1013A000A1F8443281F846324B620B628B62217C99
:1013B0002A295BD8DFE801F0165A5A201A5A5A5ADD
:1013C0002C5A445A5A5A5A5A5A5A325A5A5A5A5AE9
:1013D0005A5A265A5A16565A5A5A5A505A385A5A15
:1013E0003E5A4A002846FFF7FCFD38BD024621461A
:1013F0002846FFF71BFFF8E7024621462846FFF77D
:1014000081FEF2E7024621462846FFF79BFEECE705
:10141000024621462846FFF7EDFDE6E70246214653
:101420002846FFF71DFFE0E7024621462846FFF762
:101430004AFEDAE7024621462846FFF726FED4E7B1
:10144000024621462846FFF7ECFDCEE7024621463C
:101450002846FFF7FEFDC8E7024621462846FFF76B
:1014600082FEC2E72846FFF7BCFDBEE7074803F04F
:10147000B7FE0023202205212846FFF7ABFD0023FD
:1014800063622362012384F84632AEE76064000899
:1014900070B505460E46814B93F82820C2F11F0314
:1014A000002B3EDC7D4B1A6D9B6C9A427AD27B4BB3
:1014B0009B6D23B11AB9794B1B6A03B19847774CDE
:1014C000A36C226D991AE3798B42A8BF0B46C2F335
:1014D0000802383222449BB228323146284601F0B5
:1014E0008CFD236D18442065A36D73B1C0F3080013
:1014F00058B92146606DE26DE36960311044984748
:1015000068BB664AD36D0133D365644B93F8603290
:101510004BB3624B93F86122C2F10D03002B2DDC1B
:1015200070BD5E4CE1798B42A8BF0B4622449BB252
:101530002932314601F061FD94F828301844C0B2D8
:1015400084F828001F28ADD1002204F1280120468C
:10155000FFF710FF226DA36C9A42A3D2E0E7504838
:1015600003F03EFECDE74D4C012204F12801204658
:10157000FFF700FF012384F86032CAE7474CE179A6
:101580008B42A8BF0B4602F50E7222449BB22A3250
:101590002179284601F02BFD94F86132184484F833
:1015A0006102BDE73D4BDB6C9A4232D23B4B9B6DF7
:1015B000ABB11AB9394B1B6A03B19847374B1B6D56
:1015C000C3F308035BB93549486DCA6D8B69603157
:1015D00010449847C8B9314AD36D0133D3652F4CB5
:1015E000E36C226D991AE3798B42A8BF0B46C2F3D4
:1015F0000802383222449BB228322179284601F071
:10160000F6FC236D184420658AE7264803F0E8FDC0
:10161000E1E7224B9B6D1BB1204AD26D93421FD054
:101620001E4B93F8603273B31C4B93F86122C2F1E6
:101630000D03002B7FF774AF184CE1798B42A8BFE4
:101640000B4602F50E7222449BB22A3221792846BB
:1016500001F0CDFC94F86132184484F861025FE730
:101660000E49486DCB6960311044984738B90B4B2F
:101670000022DA655B6A002BD2D09847D0E70A488F
:1016800003F0AEFDF3E7054C012204F128012046EA
:10169000FFF770FE012384F86032C5E7A40700203D
:1016A000B4630008D4630008F063000870B5054611
:1016B0000E463E4B1A6DDB6C9A422BD23B4B9B6D18
:1016C00073B1C2F308025AB93849486DCA6D8B69C3
:1016D000603110449847C8B9344AD36D0133D3659B
:1016E000324CE36C226D991AE3798B42A8BF0B460A
:1016F000C2F30802383222449BB2283231462846CF
:1017000001F075FC236D1844206570BD284803F076
:1017100067FDE1E7254B9B6D1BB1244AD26D9342D7
:101720001DD0224B93F860320BB3204B93F861220B
:10173000C2F10D03002B25DC0D2AE6D11B4B4FF027
:10174000FF325A6500229A65DA6583F828209A6488
:10175000DA641A6583F8612283F86022D5E7134BB7
:101760000022DA655B6A002BDBD09847D9E70F4C83
:10177000012204F128012046FFF7FCFD012384F833
:101780006032D2E7094CE1798B42A8BF0B4602F5E3
:101790000E7222449BB22A323146284601F027FCC1
:1017A00094F86132184484F86102AEE7A40700207F
:1017B00010640008F8B504460F4616461D461B483F
:1017C00003F00EFD1A4804600771467185719DF89B
:1017D0001830C371079B8360089BC360099B03613A
:1017E0000A9B013B43610B9B83610C9BC3610023FC
:1017F000036243624FF0FF3242658365C36580F840
:1018000028308364C364036580F8603280F86132F5
:10181000FFF7E7FB07492046FFF77CFA002801DBCA
:101820000348F8BD044803F0DBFCF9E778630008DF
:10183000A4070020C91100089063000808B5497882
:10184000212905D022291ED0202911D0022008BD2F
:101850001988062905D90D49116007221A8001202F
:10186000F5E70A4607210A4803F0BAFC0020EEE734
:101870001A88062A01D90120E9E70721044803F064
:10188000AFFC0020E3E70120E1E700BF5865000856
:10189000DC64000808B5024803F0A2FC08BD00BFE4
:1018A000D064000810B582B00446144803F098FCD8
:1018B000134B0093402302220321204601F075FBC5
:1018C00000230093402302228421204601F06DFB77
:1018D0000C4B0093102303228521204601F065FB69
:1018E000094B7F2221212046FFF732FA002801DB35
:1018F00002B010BD054803F073FCF9E71865000855
:1019000011190008951800083D18000834650008F2
:1019100038B5054640230C4A032101F06EFB00B99F
:1019200038BD0346402828BF40239BB2064C002206
:10193000E25422468421284601F059FB21460348FF
:1019400003F04EFCECE700BF180A00201065000809
:1019500010B50446064803F043FC06492046FFF74D
:10196000D9F9002800DB10BD034803F039FCFAE781
:10197000A0640008A5180008B464000830B48AB058
:101980000021202208E04B0843EAC113DBB21149D1
:10199000895C0B44D9B201322A2AF4D90D4B597310
:1019A00001AC0D4D0FCD0FC40FCD0FC42B682370AC
:1019B0000023B3F5805F09D203F01F020AA90A448D
:1019C00012F8241C054AD1540133F2E700200AB072
:1019D00030BC704760040020606500085C0A00208D
:1019E000F8B504460F464FF400720021384600F067
:1019F000CBF8032C35D8DFE804F0021E1E25204D5D
:101A00003C4605F1300C2E460FCE20606160A2608E
:101A1000E360354610346645F5D107CD206061603E
:101A2000A2602B88A381552387F8FE31AA2387F86B
:101A3000FF310020F8BD4FF480721249384600F0A3
:101A40002DF8F6E7104E3D4606F1400734460FCC20
:101A500028606960AA60EB6026461035BC42F5D16B
:101A6000E7E7A4F12703072BE3D8084B23444FF4FF
:101A70000072074901EB4321384600F00FF8D8E720
:101A800020040020A004002060040020D9FF7F0073
:101A90005C0A00200020704780207047844641EA9D
:101AA000000313F0030349D1403A23D30B680360CA
:101AB0004B6843608B688360CB68C3600B690361CC
:101AC0004B6943618B698361CB69C3610B6A0362B4
:101AD0004B6A43628B6A8362CB6AC3620B6B03639C
:101AE0004B6B43638B6B8363CB6BC3634030403181
:101AF000403ADBD230320BD30B6803604B68436053
:101B00008B688360CB68C36010301031103AF3D219
:101B10000C3205D351F8043B40F8043B043AF9D2A7
:101B2000043208D0D2071CBF11F8013B00F8013B7A
:101B300001D30B8803806046704700BF082A13D387
:101B40008B07B1D010F00303AED0C3F10403D21A57
:101B5000DB071CBF11F8013B00F8013BA4D331F8AF
:101B6000023B20F8023B9FE7043AD9D3013A11F82F
:101B7000013B00F8013BF9D20B7803704B784370BE
:101B80008B78837060467047F0B4860746D0541E49
:101B9000002A3CD0CAB2034602E014F1FF3436D327
:101BA00003F8012B9D07F8D1032C29D9CDB245EAC2
:101BB00005250F2C45EA054533D9A4F11006360951
:101BC00003F1200707EB061703F1100242E9045561
:101BD00042E902551032BA42F8D1721C14F00C0FCF
:101BE00003EB021204F00F0613D0331F23F003039C
:101BF0000433134442F8045B9342FBD106F0030420
:101C00002CB1C9B21C4403F8011B9C42FBD1F0BCAF
:101C1000704734461346002CF3D1F8E714460346C8
:101C2000C2E71A462646E0E720F0030110F0030061
:101C3000C0F1000051F8043B00F1040C4FEACC0C59
:101C40006FF000021CBF22FA0CF213434FF0010C9C
:101C50004CEA0C2C4CEA0C4CA3EB0C0222EA0302DB
:101C600012EACC1204BF51F8043B0430F4D0C2F1A4
:101C7000000102EA0102B2FA82F2C2F11F0200EB95
:101C8000D2007047830730B427D10468A4F1013330
:101C900023EA040313F0803F034608D153F8045F9E
:101CA000A5F1013424EA050414F0803FF6D01C7835
:101CB0001CB113F8014F002CFBD101399D189D4236
:101CC00002F1FF3207D011F8014F03F8014B14B1B4
:101CD000002AF4D11A7030BC70470346E7E700BF12
:101CE00070B440EA0104A30727D1032A25D90B4683
:101CF0000646194653F8045BA5F1013424EA0504AD
:101D000014F0803F06D1043A032A46F8045B1946D2
:101D1000EFD882B133460C78551E03F8014B74B1ED
:101D200032442E4405E011F8014FF51A03F8014B37
:101D30002CB19A42F7D170BC70470646E9E7002DF6
:101D4000F9D000221D4403F8012BAB42FBD170BC3B
:101D5000704700BFF0B589B004460F466D46144E7B
:101D60000FCE0FC533682B7005A800F073F8192F3C
:101D700028BF1927791E0D460023AB4214DA03EB66
:101D8000D372521005A8825C08A800EB121010F85C
:101D9000200CE05402F00F02581C08AE324412F836
:101DA000202C22540233E8E70023635409B0F0BD2D
:101DB0008465000870B58AB0044607A800F04AF8A8
:101DC0009DF827308DF814309DF826309DF81E20A0
:101DD00013448DF815309DF825308DF816309DF898
:101DE00024309DF81C2013448DF817309DF82330C3
:101DF0008DF818309DF822308DF819306D46114E4F
:101E00000FCE0FC533682B7005AA0DF11A039A4245
:101E100013D213780AA901EB131313F8283C2146B7
:101E200001F8023B12F8013B03F00F030AA8034438
:101E300013F8283C63700C46E7E7002323700AB0D0
:101E400070BD00BF84650008014B1888704700BF53
:101E5000E0F7FF1F044B1B680360044B1B684360E3
:101E6000034B1B6883607047F0F7FF1FECF7FF1F01
:101E7000E8F7FF1F01290ED04BB213B1022914D08D
:101E800070470E4A1368034313600432136823EA51
:101E9000000010607047094A136823EA00031360CA
:101EA00004321368184310607047044A13680343F0
:101EB000136004321368184310607047080401402F
:101EC000044B1A6802431A60034A13680343136001
:101ED000704700BF0004014004040140044A136835
:101EE000C04303401360034B1A68104018607047EA
:101EF0000004014004040140014B1860704700BF1A
:101F000014040140014B1B68184070471404014041
:101F100000233FE0A2F50062914230D002F58062DA
:101F2000914201D1022200E0002203F00306B60034
:101F30000F2505FA06F71C4C04EB9304A400256852
:101F400025EA0705B2402A43226001330F2B1ED831
:101F500001229A400242F8D0144A91420DD0D9D9B8
:101F6000134A91420DD002F5806291420BD0A2F546
:101F70000062914209D00022D7E70322D5E701226F
:101F8000D3E70522D1E70622CFE70422CDE7F0BC54
:101F9000704701330F2B05D801229A400242F8D036
:101FA000F0B4D9E7704700BF0240001000140140B0
:101FB000001C0140F0B507684668002409E004F5FC
:101FC0007F553835AD00ADB20EE0B6460FE00134B6
:101FD000A4B20F2C21D843FA04F515F0010FF6D066
:101FE000072CECD8A500ADB2072CEED8BE464FF0BA
:101FF0000F0C0CFA05FC2EEA0C0E01FA05FC02355A
:1020000002FA05F54CEA050545EA0E05072C00D84D
:102010002F46072CDBD92E46D9E707604660F0BD76
:10202000014341F08001014B1960704700000140FD
:10203000034A136823F0E0631843084310607047B5
:1020400004000140024A136818431060704700BF43
:102050001C00014001617047090401617047C368B9
:1020600001EA030221EA030141EA024101617047EA
:10207000806880B2704710B50C46FFF7F9FF20402A
:1020800010BDC160704741F4803383618161836119
:102090008369836970470000024A136843F48073C0
:1020A0001360704700700040024A136823F4807385
:1020B0001360704700700040054A136823F0E00386
:1020C00013601368184340F010001060704700BFA1
:1020D00000700040024A136823F010031360704739
:1020E00000700040024A136843F008031360704711
:1020F00000700040024A136843F004031360704705
:1021000000700040024A136843F0020313607047F6
:1021100000700040024A136823F002031360704706
:1021200000700040024A136823F0010313607047F7
:1021300000700040024A136843F0010313607047C7
:1021400000700040024A136843F4807313607047C4
:1021500004700040024A136823F4807313607047D0
:1021600004700040034B1B6813F0040F0CBF0120E8
:102170000020704704700040024B1868C0F3400014
:10218000704700BF04700040024B186800F0010067
:10219000704700BF0470004006282ED8DFE800F02A
:1021A000040A10161C222800144A136843F48013F2
:1021B00013607047114A136843F4001313607047AB
:1021C0000E4A136843F48003136070470B4A136888
:1021D00043F4002313607047084A136843F48023D4
:1021E00013607047054A136843F400331360704767
:1021F000024A136843F480331360704708100240AA
:1022000006282ED8DFE800F0040A10161C22280049
:10221000144A136843F4805313607047114A1368DB
:1022200043F40053136070470E4A136843F480432D
:10223000136070470B4A136843F4006313607047E0
:10224000084A136843F4806313607047054A1368B3
:1022500043F4007313607047024A136843F48073B9
:10226000136070470810024006282ED8DFE800F0FF
:10227000040A10161C222800144A136823F4805301
:1022800013607047114A136823F4005313607047BA
:102290000E4A136823F48043136070470B4A136897
:1022A00023F4006313607047084A136823F48063C3
:1022B00013607047054A136823F400731360704776
:1022C000024A136823F480731360704708100240B9
:1022D00008B5062828D8DFE800F004090E13181DF9
:1022E0002200124B1868C0F3001008BD0F4B18688D
:1022F000C0F34010F9E70D4B1868C0F38010F4E705
:102300000A4B1868C0F3C000EFE7084B1868C0F329
:102310008000EAE7054B1868C0F34000E5E7034B8F
:10232000186800F00100E0E701F0ECFB0810024043
:10233000024A136843F40003136070470810024018
:10234000024B1868C0F3C010704700BF081002406D
:10235000062828D8DFE800F004090E13181D220013
:10236000124B1868C0F340607047104B1868C0F3F8
:10237000C06070470D4B1868C0F3407070470B4B3E
:102380001868C0F340407047084B1868C0F340001D
:102390007047074B1868C0F340007047054B18683A
:1023A000C0F3400070470020704700BF001002409B
:1023B000201002402410024010B504462046FFF7CA
:1023C000C7FF0028FAD010BD06282ED8DFE800F09D
:1023D000040A10161C222800144A136843F0807364
:1023E00013607047114A136843F0806313607047AD
:1023F0000E4A136843F08053136070470B4A13680A
:1024000043F4803313607047084A136843F00103B4
:1024100013607047064A136843F001031360704766
:10242000044A136843F00103136070470010024030
:10243000201002402410024006282ED8DFE800F0C9
:10244000040A10161C222800144A136823F0807313
:1024500013607047114A136823F08063136070475C
:102460000E4A136823F08053136070470B4A1368B9
:1024700023F4803313607047084A136823F0010384
:1024800013607047064A136823F001031360704716
:10249000044A136823F001031360704700100240E0
:1024A0002010024024100240024A136843F4002323
:1024B0001360704700100240024A136823F400239F
:1024C0001360704700100240034A136823F00303AF
:1024D00018431060704700BF04100240034A13689D
:1024E00023F4701343EA80401060704704100240E8
:1024F000034A136823F4706343EA002010607047B6
:102500002C100240034A136823F4704343EA00305E
:10251000106070472C100240034A136823F4803384
:1025200043EA00401060704704100240034A1368F9
:1025300023F4003343EA4040106070470410024027
:10254000024B186800F40040704700BF20100240A2
:10255000024A136843F4004313607047201002409E
:10256000062846D8DFE800F04040402C4004180020
:10257000204A136843F0010313601E4B1B6813F0DD
:10258000020FFAD01B4B1A6822F440721A601A68C4
:1025900042F480721A607047174A136843F00103CF
:1025A0001360154B1B6813F0020FFAD0114B1A6819
:1025B00022F440721A601A6842F400721A6070477E
:1025C0000E4A136843F4803313600C4B1B6813F4FA
:1025D000003FFAD0074B1A6822F440721A601A685A
:1025E00042F440721A607047024A136823F4407341
:1025F0001360704720100240241002400010024077
:10260000034A136823F4404343EA80301060704764
:1026100004100240034A136823F4605343EAC020C5
:102620001060704704100240034A136823F4E0630B
:1026300043EA00201060704704100240034A136808
:1026400023F0F00343EA00101060704704100240CA
:1026500028B1064A136843F4800313607047034AA5
:10266000136823F480031360704700BF0410024016
:10267000034A136823F00F0318431060704700BF2C
:102680002C100240034A136823F0F00343EA0010C1
:10269000106070472C10024028B1064A136843F4BA
:1026A000803313607047034A136823F48033136048
:1026B000704700BF2C100240024B1868C0F3810025
:1026C000704700BF0410024008B50420FFF77CFEED
:1026D0000420FFF771FE0020FFF7F6FE0020FFF751
:1026E000ADFF0320FFF78CFF0420FFF79DFF0020C4
:1026F000FFF790FF022001F019FA0E20FFF7EEFE1F
:102700000020FFF709FF0020FFF75EFE0020FFF723
:1027100053FE0220FFF7D8FE044B054A1360054A1A
:1027200005491160054A136008BD00BF0090D00341
:10273000A0050020A40500200048E801A80500200D
:1027400008B50420FFF740FE0420FFF735FE002007
:10275000FFF7BAFE0020FFF771FF0320FFF750FFDD
:102760000420FFF761FF0020FFF754FF0120FFF76F
:102770006FFF012001F0DAF90A20FFF7AFFE002019
:10278000FFF7CAFE0020FFF71FFE0020FFF714FE30
:102790000220FFF799FE044B044A1360044A0549DE
:1027A0001160054A136008BD006CDC02A005002022
:1027B000A405002000366E01A805002008B50420FD
:1027C000FFF702FE0420FFF7F7FD0020FFF77CFE75
:1027D0000020FFF733FF0020FFF712FF0020FFF774
:1027E00023FF0020FFF716FF002001F09FF90420CF
:1027F000FFF774FE0020FFF78FFE0020FFF7E4FDD7
:102800000020FFF7D9FD0220FFF75EFE034B044ACC
:102810001360044A1360044A136008BD00366E0159
:10282000A0050020A4050020A805002008B504206C
:10283000FFF7CAFD0420FFF7BFFD0020FFF744FEAD
:102840000320FFF7C1FD0320FFF7B6FD0120FFF7CE
:102850003BFE0020FFF7F2FE0020FFF7D1FE002034
:10286000FFF7E2FE0020FFF7D5FE002001F05EF941
:102870000120FFF733FE0120FFF74EFE0020FFF797
:1028800055FE0020FFF7A0FD0020FFF795FD022078
:10289000FFF71AFE034B044A1360044A1360044A0C
:1028A000136008BD00366E01A0050020A4050020BD
:1028B000A805002008B50420FFF786FD0420FFF7D7
:1028C0007BFD0020FFF700FE0320FFF77DFD0320C6
:1028D000FFF772FD0120FFF7F7FD0020FFF7AEFEC6
:1028E0000320FFF78DFE0420FFF79EFE0020FFF778
:1028F00091FE022001F01AF90720FFF7EFFD0120F9
:10290000FFF70AFE0020FFF711FE0020FFF75CFD35
:102910000020FFF751FD0220FFF7D6FD044B054ACA
:102920001360054A05491160054A136008BD00BFE0
:1029300000A24A04A0050020A405002000512502A1
:10294000A805002008B50420FFF73EFD0420FFF78E
:1029500033FD0020FFF7B8FD0320FFF735FD03200E
:10296000FFF72AFD0120FFF7AFFD0020FFF766FE0D
:102970000220FFF745FE0420FFF756FE0020FFF778
:1029800049FE022001F0D2F80420FFF7A7FD012044
:10299000FFF7C2FD0020FFF7C9FD0020FFF714FD7F
:1029A0000020FFF709FD0220FFF78EFD044B054ACA
:1029B0001360054A05491160054A136008BD00BF50
:1029C00000A24A04A0050020A40500200051250211
:1029D000A805002008B50420FFF7F6FC0420FFF747
:1029E000EBFC0020FFF770FD0320FFF7EDFC032058
:1029F000FFF7E2FC0120FFF767FD0020FFF71EFE56
:102A00000220FFF7FDFD0420FFF70EFE0020FFF778
:102A100001FE022001F08AF80720FFF75FFD012088
:102A2000FFF77AFD0120FFF781FD0020FFF7CCFCC6
:102A30000020FFF7C1FC0220FFF746FD044B054ACA
:102A40001360054A05491160054A136008BD00BFBF
:102A500000A24A04A0050020A40500200051250280
:102A6000A805002008B50320FFF7AEFC0320FFF700
:102A7000A3FC0120FFF728FD022001F057F80020F9
:102A8000FFF7DCFD0220FFF7BBFD0420FFF7CCFDC4
:102A90000020FFF7BFFD0420FFF7F4FD0620FFF73D
:102AA00027FD0120FFF790FC0120FFF785FC0020A7
:102AB000FFF73CFD0120FFF7EFFD0420FFF7D8FDF5
:102AC0000720FFF70BFD0120FFF726FD0020FFF791
:102AD000BFFD0020FFF778FC0020FFF76DFC02200F
:102AE000FFF7F2FC044B054A1360054A05491160E3
:102AF000054A136008BD00BF00A24A04A0050020DB
:102B0000A405002000512502A8050020044B1A68E6
:102B100042F480321A601A6822F480321A607047D8
:102B2000201002400368194301607047036823EADC
:102B30000101016070470368194301607047036831
:102B400023EA010101607047430903F1804303F563
:102B500004331A6800F01F00012101FA00F002435B
:102B60001A607047430903F1804303F504331A6880
:102B700000F01F00012101FA00F022EA00021A60B1
:102B80007047430903F1804303F50433196800F0EB
:102B90001F0201209040014319601A6822EA0000D8
:102BA00018607047430903F1804303F504331A6842
:102BB00000F01F00012101FA00F002431A60704783
:102BC000430903F1804303F504331A6800F01F0042
:102BD000012101FA00F022EA00021A6070470000A9
:102BE000034A136823F0706343EA00601060704783
:102BF00004100240032802D0052806D07047064A78
:102C0000136843F4802313607047044A136843F049
:102C100004031360704700BF001002402010024000
:102C2000032802D0052806D07047064A136823F40B
:102C3000802313607047044A136823F00403136071
:102C4000704700BF0010024020100240054B1B6877
:102C500013F0200FFAD0034A136843F010031360F7
:102C6000704700BF04280040054A136823F0100392
:102C70001360034B1B6813F0200FFAD0704700BF9E
:102C80000428004038B504464FF46770FFF75CFF36
:102C900040F29B30FFF758FFFFF7FEF92046FFF7A1
:102CA0005FFC0024104B1C60104D2C60FFF750FCA3
:102CB000FFF7CCFF0E4B1C6004331C600C331C6010
:102CC00004331C604FF6FF730A4A1360043213602A
:102CD000FFF7CAFF2B6823F008032B60034B1B6828
:102CE00013F0080FFAD038BD002800400428004037
:102CF000082800402028004010B50446FFF7A6FF32
:102D0000A2B2044B1A60240C043B1C60FFF7ACFF1A
:102D100010BD00BF2428004008B5FFF797FF044A04
:102D2000136843F002031360FFF79EFF08BD00BF66
:102D30000028004008B5FFF789FF044A136823F014
:102D400002031360FFF790FF08BD00BF002800409A
:102D500010B50446FFF77AFFA2B2044B1A60C4F321
:102D60000344043B1C60FFF77FFF10BD0C280040AC
:102D7000034B186804331B6843EA0040704700BFE8
:102D800018280040034B186804331B6843EA0040CE
:102D9000704700BF10280040034B186804331B68BD
:102DA00043EA0040704700BF2028004010B50446A9
:102DB000FFF74CFF220C044B1A60A4B204331C60D2
:102DC000FFF752FF10BD00BF1828004010B50446A1
:102DD000FFF73CFF012C0CD063B223B1022C0ED0C4
:102DE000FFF742FF10BD094A136843F00103136067
:102DF000F6E7064A136843F002031360F0E7034A5C
:102E0000136843F004031360EAE700BF00280040A2
:102E100010B50446FFF71AFF012C0CD063B223B1A2
:102E2000022C0ED0FFF720FF10BD094A136823F0D3
:102E300001031360F6E7064A136823F002031360E8
:102E4000F0E7034A136823F004031360EAE700BFC6
:102E50000028004001280AD043B213B102280CD048
:102E60007047094A136823F0010313607047064A4C
:102E7000136823F0020313607047034A136823F0BA
:102E800004031360704700BF0428004001280AD0E3
:102E900043B21BB102280BD000207047074B1868C3
:102EA00000F001007047054B186800F00200704701
:102EB000024B186800F00400704700BF042800406F
:102EC00008B54FF46770FFF73FFE40F29B30FFF705
:102ED0003BFEFFF7E1F8084A136823F0080313608C
:102EE000054B1B6813F0080FFAD0034B1B6813F057
:102EF000200FFAD008BD00BF0428004038B50546B1
:102F00000C464FF46770FFF71FFE40F29B30FFF74F
:102F10001BFEFFF715FB10B1FFF7D2FF38BD2846A7
:102F2000FFF7B0FE2046FFF713FFF7E7F8B50446BA
:102F30000F4616461D4603689847C0F8DC400760F8
:102F400046608560069BC360079B0361BDF8203027
:102F50008382084B0367084BC366084B83660023D4
:102F600005E003F13202002140F822100133032B67
:102F7000F7DDF8BD0532000841320008CB32000809
:102F8000C16170470162704741627047816270475A
:102F900008B5D0F8DC305B6A984708BD08B5D0F8B2
:102FA000DC309B6A03B1984708BD30B583B0D0F8D8
:102FB000DC40A468069D0095A04703B030BD30B545
:102FC00083B0044600258575C5750368DB790095D7
:102FD0002A462946FFF7E9FFD4F8DC305B6829462A
:102FE00020469847E36903B1984703B030BD10B558
:102FF000D0F8DC40E469A04710BD10B5D0F8DC4043
:10300000246AA04710BD08B5D0F8DC301B6998478A
:1030100008BD08B5D0F8DC309B69984708BD08B5F5
:10302000D0F8DC305B69984708BD884207D240B1D0
:1030300090FBF2F302FB130028B100207047002040
:103040007047002070470120704710B504460368A0
:10305000DA79838F9A4211D21346826B0021FFF7EF
:10306000C6FF022384F82C302268D179A36B0B446D
:10307000A363D279A38F9B1AA38710BD826B002113
:10308000FFF7B5FF94F8443043B1022384F82C30A5
:10309000002384F84430A387A363EEE70323F5E716
:1030A0002DE9F04182B00546884600F1480700242A
:1030B00000E00134032C18DC07EBC40257F834603D
:1030C0009EB198F8003051790B4012799342F0D1BB
:1030D00005F14003009305F13C0305F13802414638
:1030E0002846B0470128E4D807E005F13C0305F184
:1030F00038024146284600F0EDFB02B0BDE8F08101
:1031000010B5044601220021FFF77DFF002384F85B
:103110002C3010BD38B504460D4603698363CB8857
:103120008387FFF7BDFFB0B1E98851B12368DA7931
:10313000A08FFFF77AFF84F844002046FFF785FF51
:1031400038BD00231A4619462046FFF750FF0423D6
:1031500084F82C30F4E72046FFF7D2FFF0E708B5FB
:10316000CA88838A9A4210D80369836300238387BD
:10317000CA880368DB799A420AD9052380F82C3083
:1031800000221146FFF74BFF08BDFFF7B9FFFBE731
:10319000062380F82C30F3E770B50546C48E828F85
:1031A000A41A0368DB799C42A8BF1C46A6B2816BB7
:1031B00033460A440021FFF720FF864204D1AB8F3B
:1031C0001844A887A0B270BD2846FFF799FF4FF0BA
:1031D000FF30F8E730B40024032C10DC04F10905BB
:1031E00050F835500DB10134F6E7093400EBC40551
:1031F00029716A7140F83430002030BC70474FF0BC
:10320000FF30FAE738B5044600F1300500210164CB
:103210000122FFF704FFE38E43B194F93030002B15
:1032200009DB29462046FFF79AFF38BD294620468C
:10323000FFF770FFF9E729462046FFF76BFFF4E739
:1032400010B5044690F82C30062B15D0072B2BD048
:10325000052B02D0FFF754FF36E0FFF79DFF002853
:1032600032DBE38EA28F9B1A2268D27993422BDC49
:10327000062384F82C3027E0FFF78EFF002823DB9D
:1032800004F130012046FFF70BFF48B100231A4636
:1032900019462046FFF7ABFE042384F82C3013E0D8
:1032A0002046FFF72DFF0FE000231A461946FFF7CF
:1032B000A4FE002384F82C30236C1BB104F13001F0
:1032C000204698470023236410BD10B5044690F8AB
:1032D0002C30032B09D0042B0FD0022B02D0FFF788
:1032E0000FFF01E0FFF7B1FE10BD072380F82C307F
:1032F00000221146FFF793FEF6E7036C13B100F1CD
:103300003001984794F830301BB994F83130052BD0
:1033100003D0002384F82C30E6E7D4F8DC305B6877
:10332000618EC9B220469847F3E7000A7047C0B2E1
:10333000704708B50B7873B94B887F2B0DD8837510
:10334000D0F8DC3093F830204AB15B684988C9B2C4
:103350009847012000E0002008BD0020FCE7012084
:10336000FAE770B54D8875B94FF0FF330133DBB222
:10337000C3755BB3426803EB430403EB84030D3B6B
:103380001344002216E000230268527C9A420AD9B4
:10339000426803EB430403EB8404224452799542D0
:1033A00003D00133F0E74FF0FF33002BDEDA0020CB
:1033B00031E001321C79944208D9D3F80950140144
:1033C0002C59002CF5D000252570F2E70E46054655
:1033D000D0F8DC30DB689847D5F8C8300BB1002353
:1033E00007E0012017E003F10902002145F832103F
:1033F0000133032BF7D9002400E00134032C09D852
:1034000004F1320355F82330002BF6D0718828469A
:103410009847F2E7012070BD1988012901D90121DF
:103420001980C37D5BB1416803EB430003EB80036C
:103430000D3B0B4412685B791370012070471368D1
:1034400000221A70F9E770B54468C27D02EB4205AC
:1034500002EB85020D3A22448C881579AC4219D2D0
:10346000D2F80920240116194D883679B54213D2B5
:1034700012595AB115701C46D0F8D83013B14A8889
:103480008988984700232380012070BD002DF2D049
:103490000020FAE70020F8E70020F6E730B444689F
:1034A000C07D00EB400500EB85000D3820448D8881
:1034B0000479A5420FD201241C80D0F809008B8822
:1034C0001B01C3582BB1197813681970012030BC47
:1034D00070470021F8E70020F9E71988022901D98F
:1034E00002211980116800230B70126853700120AB
:1034F00070471988022901D9022119801168002317
:103500000B7012685370012070472DE9F04F89B09D
:10351000174607921D46466801EB410401EB8404FF
:1035200031190491335DAB4228BF2B469B461A46A6
:103530003846FEF7B3FA07EB0B0AA5EB0B05ADB265
:10354000335D01930023069385E0D7F80B40AC422E
:10355000A8BF2C46A4B222465046FEF79FFAA244CA
:103560002D1BADB2A3441FFA8BFBD7F80B30019A89
:103570001A4493B201930136B6B2029B1B79B3424F
:1035800021D9029BD3F80990C6EB061809EB08076E
:1035900019F80840AC4228BF2C462246394650460E
:1035A000FEF77CFAA2442D1BADB2A3441FFA8BFB9D
:1035B00019F80830019A13449BB20193D7F8071009
:1035C0000029C2D1D7E7039B01339BB20393049B2D
:1035D000D3F80930059A13441A7903998A4236D9E7
:1035E000DF68039B03EB4306C6EBC606BB190293D9
:1035F000BC5DAC4228BF2C46224698461946504630
:10360000FEF74CFAA2442D1BADB2A3441FFA8BFB6C
:10361000BB5D019A13449FB20197D8F80D10A1B178
:10362000D8F81140AC42A8BF2C46A4B2224650465E
:10363000FEF734FAA2442D1BADB2A3441FFA8BFB54
:10364000D8F811301F44BBB20193002695E7069BC2
:1036500001339BB20693049B1B79069A93421FD9B0
:10366000049BD3F80930069A1201059213449E6810
:103670009EB13478AC4228BF2C4622463146504693
:10368000FEF70CFAA2442D1BADB25C441FFA84FB7A
:103690003378019A13449BB201930023039396E776
:1036A000079B1A46019B5380584609B0BDE8F08F2E
:1036B0002DE9F84306460F4691461D464C882046A4
:1036C000FFF735FE80462046FFF72FFE022810D078
:1036D00003281AD0012802D00020BDE8F8833368FF
:1036E000C9F800301B782A88934228BF13462B80E4
:1036F000F3E73269C9F800202B885FFA88F1304679
:10370000FFF703FF28800120E7E73469B8F1000FD5
:103710000FD10923A3700423E37023702B88042B9B
:1037200028BF04232B8003236370C9F800400120C5
:10373000D3E708F1FF38B3682BB3F268424524DDC4
:10374000B98840F20942914221D14FEA880753F8E3
:103750002800FEF769FA431C5B00DBB223709BB2C2
:103760002A88934228BF13462B8000222B885B08AF
:10377000013B9342D7DDB368DB59995C04EB42030C
:1037800059800132F2E70020A7E70020A5E70020DA
:10379000A3E710B514461A88022A01D902221A801A
:1037A0008988C9B2FFF735FC2368003018BF0120B3
:1037B0001870236800225A70012010BD08B589884E
:1037C0000122C9B2FFF71FFC012008BD08B5898896
:1037D0000022C9B2FFF717FC012008BD002300E05A
:1037E0000133032B0DDC03F1320250F822201AB111
:1037F0008A42F5D100207047323340F82310002070
:1038000070474FF0FF307047C0F8D8107047000085
:1038100010B54C78092C12D8DFE804F00B11111107
:1038200011050911070D084C06E0084C04E0084C8E
:1038300002E0084C00E0084C1CB1A04710BD00207D
:10384000FCE70020FAE700BF333300081934000812
:10385000B1360008DB3400086333000810B54C783B
:103860000A2C08D00B2C08D00CB1002010BD054C40
:103870002CB1A047FAE7044CFAE7044CF8E7002023
:10388000F4E700BFF33400089D3400084734000813
:1038900038B54C78012C05D065B26DB1032C07D03A
:1038A000002038BD4C880CB9074C06E00020F8E732
:1038B0004C882CB9054C00E0054C1CB1A047F0E742
:1038C0000020EEE70020ECE7CD370008BD37000808
:1038D0009337000838B50C7814F0600F12D104F05B
:1038E0001F04012C08D065B21DB1022C07D00020A6
:1038F00009E0FFF78DFF06E0FFF7B0FF03E0FFF7F9
:10390000C7FF00E0002038BD08B540F29730FFF750
:103910001BF9064A0023136005490B600C390B6044
:103920004FF41C431360034808BD00BF405C0040D7
:10393000505C00405C1A00200132520832B131F86C
:10394000023B40F8043B013A92B2F7E7704710B4EB
:1039500002F00104520832B131F8043B20F8023B76
:10396000013A92B2F7E70CB10B78037010BC7047C4
:10397000FEE7704710B5184B1849194A934207D211
:1039800051F8042B43F8042BF7E7002243F8042BEB
:10399000144A9342F9D3144A136843F40073136032
:1039A000124C134B9C4203D254F8043B9847F8E75F
:1039B000104C114B9C4203D254F8043B9847F8E753
:1039C000FCF762FC0D4C0E4B9C4203D254F8043BB6
:1039D0009847F8E710BD00BF500100204866000876
:1039E000AC050020601B002014ED00E040660008DC
:1039F000406600084066000840660008406600080F
:103A00004066000800F01F024009800000F160409D
:103A100000F56140012393400360704700F01F02EE
:103A2000400901239340024A42F82030704700BF0A
:103A300080E100E043099B0003F1604303F562432A
:103A40001A6800F01F00012303FA00F0024214BFBD
:103A500018460020704700F01F024009800000F166
:103A6000604000F56240012393400360704700000E
:103A700000F01F02400901239340024A42F820301F
:103A8000704700BF80E200E043099B0003F1604300
:103A900003F561431A6800F01F00012303FA00F0E8
:103AA000024214BF1846002070470000432804D982
:103AB00000F00F00044BC154704700F1604000F566
:103AC00064400170704700BF14ED00E043099B00A3
:103AD00003F1604303F563431A6800F01F000123FC
:103AE00003FA00F0024214BF18460020704700009D
:103AF000EF2803D8024B1A6810431860704700BFC4
:103B000000EF00E0FEE708B5FFF7FCFF024A13688C
:103B100043F010031360704700200240024A13680C
:103B200023F010031360704700200240034A13681B
:103B300023F0070318431060704700BF00200240C5
:103B4000034B044A1A6002F188321A60704700BFC2
:103B5000082002402301674541F08001014B1960B4
:103B6000704700BF4C5C00403E2A16D9013AC2F3B0
:103B70004412501C400180B242F020020A4B1B68E4
:103B80009BB203EBC10306335B0003F1804303F5F3
:103B9000C043920292B21A6070470132520890B24A
:103BA000400080B2EAE700BF505C0040F0B583B04F
:103BB00007468C46089E444903C902AC04E9030049
:103BC0000CF07F05AC0004F1804404F5B844216892
:103BD00009B221F4E04121F07F01294389B221603B
:103BE000216809B221F4EC4121F0700102A800EB38
:103BF000420232F9082C114389B221604FFA8CFC41
:103C0000BCF1000F00DB4DBB398B304A126892B219
:103C100002EBC502520002F1804202F5C04211607F
:103C200026B105EB45018A003A449666226822F4E3
:103C3000E04222F030021204120C2260226892B29A
:103C400022F4E04222F0400282F0200242F40042DC
:103C500042F0800222603A8B1A443A83BCF1000F92
:103C600001DA03B0F0BD1A463B8B1849096889B2E6
:103C700001EBC5010431490001F1804101F5C0416A
:103C80000B6029463846FFF76FFF26B105EB450567
:103C9000AB003B44DE66236823F4415323F030033A
:103CA0001B041B0C236023689BB223F4804323F086
:103CB000700383F4405343F4004343F080032360D4
:103CC0003B8B18443883CCE7CC650008505C00403F
:103CD00030B40124072C18DCA10001F1804101F56A
:103CE000B8410A6892B222F4E04222F0400248F25F
:103CF00080052A430A600B689BB223F4804323F0BB
:103D000070032B430B600134E4E70368DB79203355
:103D10005B00038330BC704710B40B4699B98C002C
:103D200004F1804404F5B844216889B221F4E041EB
:103D300021F0400189B272B31020414041F40041AA
:103D400041F08001216013F0800F26D162B9990003
:103D500001F1804101F5B841086820F4415020F09C
:103D600030000004000C08609B0003F1804303F561
:103D7000B843196889B221F4804121F0700189B2F9
:103D800072B34FF48052514041F4004141F0800140
:103D9000196010BC70472020CFE703F07F039B0021
:103DA00003F1804303F5B843196889B221F4E04177
:103DB00021F0400189B28AB11020414041F4004114
:103DC00041F080011960002AE3D11A6822F4E04230
:103DD00022F030021204120C1A60DAE72020ECE71D
:103DE0004FF44052CFE711F0800F0CD1890001F160
:103DF000804101F5B8410B6803F44053B3F5805F8F
:103E000011D00020704701F07F01890001F180414D
:103E100001F5B8410B6803F03003102B01D00020EE
:103E200070470120704701207047000011F0800F9B
:103E300027D1144B5A5492B1890001F1804101F508
:103E4000B8410B689BB223F4804323F0700383F4E2
:103E5000005343F4004343F080030B607047890034
:103E600001F1804101F5B8410B689BB223F4804316
:103E700023F0700383F4405343F4004343F0800382
:103E80000B607047581B0020F8B501F07F06B400A6
:103E900004F1804404F5B844276807F03007302F58
:103EA0002DD01D461146174F3B689BB2F600334498
:103EB0005B0003F1804303F5C043188840002A46A5
:103EC00000F1804000F5C040FFF736FD3B689BB233
:103ED000334402335B0003F1804303F5C0431D60AC
:103EE000226892B222F4E04222F0400282F03002D4
:103EF00042F4004242F0800222602846F8BD0020D1
:103F0000FCE700BF505C00402DE9F0418D0005F159
:103F1000804505F5B845286800F44050B0F5405F8D
:103F200050D029480468A4B2CE003444063464005A
:103F300004F1804404F5C0442088C0F3090098428D
:103F40003EDA214B1B689BB2334406335B0003F11E
:103F5000804303F5C0431F88C7F30907104688460E
:103F6000194B1C68A4B234440434640004F1804446
:103F700004F5C044218849003A4601F1804101F529
:103F8000C041FFF7E4FC2B681BB223F0F0031B05D4
:103F90001B0D43F080032B600C4B13F8083063B902
:103FA0002B689BB223F4804323F0700383F44053C7
:103FB00043F4004343F080032B603846BDE8F081B2
:103FC0001F46CBE70027F8E7505C0040581B002055
:103FD00070B506463F4B1C68A5B215F4806F29D119
:103FE00014F4004F2ED115F4006F06D0394B4FF268
:103FF000FF721A60336A03B1984715F4805F06D0E8
:10400000344B4EF6FF721A60736A03B1984715F489
:10401000007F06D02F4B4FF6FF521A60B36A03B1F0
:104020009847B36A002B4ED02B4A136843F40073B1
:10403000136070BD4FF6FF321A6040230383FEF712
:10404000BEFFF6E704F00F0415F0100F12D0A30026
:1040500003F1804303F5B8431B6813F4006F01D1EB
:10406000012216E0082300F130022146FFF74CFF41
:1040700002220EE0A20002F1804202F5B84213686B
:104080001BB223F0F0031B051B0D43F40043136028
:10409000002204EB440313441A3356F823301BB1B7
:1040A0002146304698479EE7A10001F1804101F585
:1040B000B8410B681BB223F0F0031B051B0D43F046
:1040C00080030B608FE7044A136823F400731360C6
:1040D000AFE700BF445C0040405C00409A4200D221
:1040E00088547047704720B108B50B6849689847F5
:1040F00008BD7047002301680A78303AD2B2092A15
:1041000008D803EB83035A004B1C03600B7813445D
:10411000303BF0E7184670472DE9F04F83B0054675
:10412000019193461E46DDF830900D9CDDF83880F5
:104130000F9B13F0030F09D0A4B1013C571C334669
:10414000019919F80400A8473A46F5E7274647457C
:10415000F2D202F1010A334601992020A847013723
:104160005246F4E70F9B13F0020F03D1104603B041
:10417000BDE8F08FA2EB0B034345F7D2541C334646
:1041800001992020A8472246F4E72DE9F04385B0A5
:104190000C9D0D9C9DF83890DDF83C80DDF840E0EA
:1041A000DDF844C0129E16F0020F1FD1BCF1000FC3
:1041B0000AD016F0010F07D0B9F1000F02D116F0A6
:1041C0000C0F01D00CF1FF3C744508D21F2C06D80F
:1041D00030272F550134F7E730272F55013416F0DB
:1041E000010F03D0644501D21F2CF5D916F0100F32
:1041F00015D016F4806F04D11CB1744521D06445EC
:104200001FD0B8F1100F27D0B8F1100F2DD0B8F192
:10421000020F33D01F2C02D830272F5501341F2C0A
:1042200005D8B9F1000F2FD02D272F550134039653
:10423000CDF808C001940095FFF76EFF05B0BDE80A
:10424000F083671E06D0B8F1100F01D03C46D8E7C6
:10425000023CD6E73C46D4E716F0200FD4D11F2C01
:10426000D2D878272F550134D4E716F0200FCED0BE
:104270001F2CCCD858272F550134CBE71F2CC9D879
:1042800062272F550134C5E716F0040F03D02B2702
:104290002F550134CBE716F0080FC8D020272F5533
:1042A0000134C4E72DE9F04190B0169D189FDDF868
:1042B0006CC00DB92CF0100C1CF480661BD03DB303
:1042C000002618E01CF0200F1FD04FF0410E744460
:1042D000E4B20A3CE4B206F1010E0DF14008464496
:1042E00006F8204CB5FBF7F4BD4213D3BEF11F0F07
:1042F00010D876462546B5FBF7F407FB1454E4B214
:10430000092CDFD83034E4B2E5E74FF0610EDEE788
:104310004FF0000ECDF818C01A9C0594199C049417
:1043200003979DF85C400294CDF804E008AC00943B
:10433000FFF72BFF10B0BDE8F0812DE9F04F95B0ED
:1043400009900A910B929B46DDE91E45DDE9228921
:10435000DDF898A054EA050301D12AF0100A1AF4F6
:10436000806620D054EA05032BD000261BE01AF00B
:10437000200F24D041231A44D2B20A3AD2B2771C79
:1043800014AB1E4406F8202C42464B4620462946D4
:1043900001F03AFC4D4508BF444513D31F2F11D8F7
:1043A0003E4604460D4642464B462046294601F00D
:1043B0002BFCD2B2092ADAD83032D2B2DFE761233D
:1043C000D9E70027CDF818A0259B0593249B0493DB
:1043D000CDF80C809DF88030029301970CAB0093D0
:1043E0005B460B9A0A990998FFF7CFFE15B0BDE816
:1043F000F08F0000000000002DE9F04F93B008900E
:104400000791924606931C9DDDF874B0209C2A46C5
:104410005B462846594601F07DFB002800F09E814E
:104420004FF0FF32C64B2846594601F09BFB00284F
:1044300040F094814FF0FF326FF4801328465946C4
:1044400001F072FB002840F08981002200232846F9
:10445000594601F069FB002840F092810995CDF89A
:1044600040B014F48063119301D106231E93099A7E
:10447000109BC3F30A50C3F31303164643F07F5750
:1044800047F44017A0F2FF3001F072F89CA3D3E983
:10449000002301F0D7F89CA3D3E9002300F01CFF10
:1044A000804689460022A74B3046394600F012FF6D
:1044B00097A3D3E9002301F0C5F802460B46404616
:1044C000494600F009FF01F057FB804601F050F823
:1044D00006460F4690A3D3E9002301F0B3F800226B
:1044E000994B00F0F9FE01F047FB81468CA3D3E91C
:1044F00000233046394601F0A5F806460F464846E7
:1045000001F036F888A3D3E9002301F09BF80246B6
:104510000B463046394600F0DDFE02460B46CDE93B
:104520000A2301F08FF8CDE90C0109F2FF390026CA
:104530004FEA0957DDE90A0102460B4600F0CCFEBE
:10454000CDE90E01DDE90A2300204FF0804100F0A3
:10455000C1FECDE90A0100227C4BDDE90C0101F02E
:104560009BF900227A4B00F0B7FE02460B46DDE9CC
:104570000C0101F091F90022764B00F0ADFE0246ED
:104580000B46DDE90C0101F087F902460B46DDE937
:104590000A0100F0A1FE02460B46DDE90E0101F022
:1045A0007BF900226C4B00F097FE32463B4601F04F
:1045B00049F806460F46CDE90A67099A109B01F0B3
:1045C000D1FA48B108F1FF380022614B3046394634
:1045D00001F062F9CDE90A0108F16303C62B00F28C
:1045E000D480042614F4006F22D051A3D3E9002311
:1045F000DDF824904846109F394601F0A9FA0028BA
:1046000000F0C8804CA3D3E900234846394601F0A6
:104610008BFA002800F0BE801E9B434540F3B78014
:10462000A3EB0803013B1E9344F480640026B046CC
:104630001F9B9E4280F0BA809F1B14F0020901D09C
:1046400006B10027B8F1000F07D0DDE90A23099869
:10465000109901F021F909901091002200232846B9
:10466000594601F061FA002840F0A28024F400636A
:10467000049303971E9B0293099A109BCDE9002394
:10468000069B52460799089800F09EF8002E74D0B9
:1046900014F0200F00F091804524471C069B024631
:1046A000DDF81CB059462046089DA84788EAE87303
:1046B000A3EBE87305220592013E049600220392C3
:1046C0000A2202924FEAD87401940093069B3A465C
:1046D00059462846FFF7E6FDB9F1000F4DD00246D6
:1046E000089E1F9DA2EB0A03AB4268D2541C069B96
:1046F00007992020B0472246F4E700BFAFF30080BF
:10470000FB799F501344D33FB3C8608B288AC63FC0
:1047100061436F63A787D23F71A379094F930A4022
:104720001655B5BBB16B0240EF39FAFE422EE63F9B
:104730002D431CEBE2361A3F0000000080842E411E
:10474000FFFFEF7F0000F83F0000E03F00002C403B
:1047500000002440000018400000F03F04941F9B1C
:1047600003931E9B02932A465B46CDE90023069BDA
:1047700052460799089800F027F813B0BDE8F08F6B
:1047800009950BF1004310936BE605262AE70023F9
:104790001E9349E71E9B002B3FF44AAF119B002B51
:1047A0003FF446AF1E9B013B1E9341E7002744E7C1
:1047B000109901F10043109358E765246DE7104606
:1047C000DBE700BF000000002DE9F04F97B0079035
:1047D000089109929B46229DDDF88C80DDF890902F
:1047E000DDE920231046194601F094F900283ED057
:1047F0004FF0FF326FF48013DDE9200101F094F9EE
:10480000002843D14FF0FF32A94BDDE9200101F030
:10481000A9F9002849D1A2A3D3E90023DDE92001A9
:1048200001F0A0F9002857D19FA3D3E90023DDE9C7
:10483000200101F079F900284ED100220023DDE9A2
:10484000200101F071F9002856D14FF0000A19F447
:10485000806F5CD000241F2C5BD8092D59D916AB72
:104860002344302203F8202C013D0134F3E7CDF836
:104870000C90CDF80880032301938E4B00935B4688
:10488000099A08990798FFF747FC06E1CDF80C90C4
:10489000CDF8088004230193874B00935B46099A67
:1048A00008990798FFF738FCF7E019F004030FD0D8
:1048B000824A7BB10423CDF80C90CDF80880019397
:1048C00000925B46099A08990798FFF725FCE4E0F7
:1048D0007B4AEEE70323EEE7CDF81090CDF80C808D
:1048E0000295DDE92034CDE900345B46099A089948
:1048F0000798FFF781FDD0E0DDE9202300200021AB
:1049000000F0E8FCCDE920014FF0010A9FE7062501
:10491000A0E7DDE9200101F02FF9064600F028FEAE
:1049200002460B46DDE9200100F0D4FC654B03EBA9
:10493000C503D3E90023CDE90C2300F083FECDE9C4
:104940000A0101F041F9074600F002FE02460B465B
:10495000DDE90A0100F0BEFCCDE90A0100225A4B54
:1049600001F000F950B30137384600F0F1FD02467E
:104970000B46DDE90C0101F0E1F808B10136002732
:1049800055BB304600F0F4FD02460B46DDE9200140
:1049900000F0A0FCCDE90A0100224B4B01F0C4F865
:1049A00038B10022484BDDE90A0101F0DBF80028AC
:1049B0003DD016F0010F3AD0013638E00022424BCC
:1049C000DDE90A0101F0B0F80028D9D117B117F0DC
:1049D000010FD5D00137D3E71F2C1BD8013D3B4B2E
:1049E000A3FB0723DB08194603EB83035A00BB1A1A
:1049F000621C303316A8044404F8203C092F2DD93A
:104A00000F461446E8E716AA2244302102F8201C7B
:104A10001D4601341F2C02D86B1E002DF3D11F2C14
:104A200005D816AB23442E2203F8202C01341F2C6A
:104A300017D8274A82FB0632F317C3EBA2031A46A4
:104A400003EB83035900731A611C303316A8044426
:104A500004F8203C16461AB10C46E8E71446D9E79C
:104A60000C4609F00303012B34D01F2C08D8BAF1EF
:104A7000000F45D016AB23442D2203F8202C01341F
:104A8000CDF80C90CDF8088001940EAB00935B46F6
:104A9000099A08990798FFF73FFB17B0BDE8F08F18
:104AA0000000000065CDCD410000000065CDCDC106
:104AB000FFFFEF7FE0650008E4650008D8650008A7
:104AC000D4650008F06500080000E03FCDCCCCCCF8
:104AD00067666666B8F1000F07D0BAF1000F02D121
:104AE00019F00C0F01D008F1FF384445BDD21F2C3E
:104AF000BBD816AB2344302203F8202C0134F4E752
:104B000019F0040F06D016AB23442B2203F8202CF7
:104B10000134B5E719F0080FB2D016AB23442022B8
:104B200003F8202C0134ABE72DE9F04F8FB0064697
:104B300093460D930A91002900F0398300240D9BC0
:104B40001878002800F03583252809D0651C5B46BD
:104B500022460A99B0470D9B01330D932C46EEE790
:104B600001330D9300252DE0A1F13003DBB2092BB9
:104B700068D92A296BD04FF0000A0D9B1A782E2A8B
:104B800075D04FF000090D9A1378683B122B00F294
:104B9000AC80DFE813F09800AA000701AA008A00A1
:104BA000AA00AA00AA00AA00AA00AA00AA00A600B9
:104BB000AA00AA00AA00AA00AA000C0145F001055B
:104BC00001330D930D9B1978A1F12002102ACBD847
:104BD00001A050F822F000BF314C0008694B0008DA
:104BE000694B00083B4C0008694B0008694B000802
:104BF000694B0008694B0008694B0008694B0008C5
:104C0000694B0008274C0008694B00081D4C000840
:104C1000694B0008694B0008BD4B000845F00205D0
:104C200001330D93CEE745F0040501330D93C9E739
:104C300045F0080501330D93C4E745F01005013335
:104C40000D93BFE70DA8FFF755FA824695E7189B2D
:104C50001A1D18921B68002B04DB9A460D9B01332A
:104C60000D938AE745F00205C3F1000AF6E745F423
:104C700080655A1C0D925A78A2F13003DBB2092BE1
:104C800004D92A2A07D04FF000097CE70DA8FFF7C6
:104C900031FA814677E7189B1A1D18921B6823EAA0
:104CA000E3790D9B01330D936DE745F48071531C3F
:104CB0000D9352786C2A01D00D4616E045F44075EC
:104CC00001330D9311E045F08001531C0D93527890
:104CD000682A01D00D4608E045F0C00501330D9368
:104CE00003E045F4807501320D920D9B1878A0F118
:104CF0002503532B00F25182DFE813F044024F02E8
:104D00004F024F024F024F024F024F024F024F021B
:104D10004F024F024F024F024F024F024F024F020B
:104D20004F024F024F024F024F024F024F024F02FB
:104D30004F024F024F024F024F024F0275015501C1
:104D400075014F024F024F024F024F024F024F02B6
:104D50004F024F024F024F024F024F024F024F02CB
:104D60004F025E004F024F024F024F024F024F02AE
:104D70004F024F024F025E009C015E00750155011B
:104D800075014F025E004F024F024F024F024F0269
:104D90005E0029024F024F02CD014F025E004F021A
:104DA0004F025E0045F4007501320D929DE745F417
:104DB000807501320D9298E7782809D058283AD0AA
:104DC0006F283AD062283AD025F010050A2300E077
:104DD0001023582835D0692803D0642801D025F045
:104DE0000C0515F4806F01D025F0010569282BD042
:104DF000642829D015F4007F40F0988015F4807F56
:104E000040F0AF8015F0400F00F0C080189A111DDF
:104E1000189112780595CDF810A0CDF80C9002935A
:104E20000023019300925B4622460A993046FFF721
:104E300039FA044629E01023CBE70823C9E7022307
:104E4000C7E745F02005C6E715F4007F21D115F42A
:104E5000807F44D115F0400F5AD0189A111D189137
:104E6000127882EAE271A1EBE2710595CDF810A00B
:104E7000CDF80C900293D20F019200915B4622462E
:104E80000A993046FFF70EFA04460D9B01330D9345
:104E900055E6189A073222F0070202F1080118912C
:104EA000576810683946002877F1000213DB08952F
:104EB000CDF81CA0CDF81890049300230593FF0FA4
:104EC0000297CDE900015B4622460A993046FFF77A
:104ED00034FA0446D9E7404267EB4701E7E7189AFE
:104EE000111D1891126882EAE271A1EBE271059539
:104EF000CDF810A0CDF80C900293D20F0192009142
:104F00005B4622460A993046FFF7CCF90446BCE7D7
:104F100015F0800F05D0189A111D1891B2F90020D4
:104F20009FE7189A111D189112689AE7189A07328C
:104F300022F0070202F1080118910895CDF81CA093
:104F4000CDF8189000210493059102910CCACDE987
:104F500000235B4622460A993046FFF7EEF90446E5
:104F600093E7189A111D18910595CDF810A0CDF86A
:104F70000C90029300230193136800935B46224632
:104F80000A993046FFF78EF904467EE715F0800F48
:104F900004D0189A111D189112883BE7189A111D18
:104FA0001891126836E746281AD0189B073323F069
:104FB000070303F1080218920495CDF80CA0CDF870
:104FC0000890D3E90023CDE900235B4622460A99E5
:104FD0003046FFF7F9FB04460D9B01330D93AEE518
:104FE00045F02005E1E7672801D0472801D145F4C5
:104FF0000065452801D0472801D145F02005189BC0
:10500000073323F0070303F1080218920495CDF843
:105010000CA0CDF80890D3E90023CDE900235B462E
:1050200022460A993046FFF7E7F904460D9B013303
:105030000D9384E515F002051CD001271898031D77
:10504000189304F101085B4622460A990078B0479C
:105050009DB90D9B01330D93444670E5541C5B468E
:105060000A992020B0473B4622465F1C9A45F5D856
:105070001446E3E701232246F7E7424606E0551CC3
:105080005B460A992020B04727462A467C1CBA4531
:10509000F5D89046DDE7189B1A1D1892D3F80080CA
:1050A000B9F1000F09D14FF0FF3347463A7832B1DA
:1050B0005A1E23B101371346F8E74B46F5E7A7EB35
:1050C00008030B9315F4806703D04B4528BF4B466C
:1050D0000B9315F002030C9303D022463C464F4637
:1050E00018E022460B9B06E0541C5B460A992020E0
:1050F000B0472B4622465D1C9A45F5D80B953C4699
:105100004F4607E01F4608F10108551C5B460A9907
:10511000B0472A4698F8000020B1002CF3D07B1E3F
:10512000002FEFD114460C9B1BB90D9B01330D933F
:1051300005E50B9B06E0551C5B460A992020B0470D
:1051400023462A465C1C9A45F5D81446EDE745F0FF
:105150002105189B1A1D18921B68059508220492B8
:10516000CDF80C90102202920022019200935B462F
:1051700022460A993046FFF795F804460D9B013305
:105180000D93DCE4651C5B4622460A992520B04756
:105190000D9B01330D932C46D1E4651C5B462246E2
:1051A0000A99B0470D9B01330D932C46C7E4084E76
:1051B000C4E45C4509D30BF1FF325B460A99002039
:1051C000B04720460FB0BDE8F08F2246F5E700BF9C
:1051D000E540000800B9704708B5FBF757FC08BD6B
:1051E0000FB400B585B006AA52F8043B03920092B2
:1051F0004FF0FF3202A90448FFF796FC05B05DF8B6
:1052000004EB04B0704700BFD55100080EB400B5E0
:1052100084B005AA52F8043B039200924FF0FF328B
:1052200001460448FFF780FC04B05DF804EB03B0CE
:10523000704700BFDD4000080CB400B585B006AA79
:1052400052F8043B039200920A4601460348FFF7D6
:105250006BFC05B05DF804EB02B07047DD40000860
:1052600000B585B0009103464FF0FF3203A9034813
:10527000FFF75AFC05B05DF804FB00BFD5510008EC
:1052800000B583B0009313460A4601460248FFF773
:105290004BFC03B05DF804FBDD4000080CB400B526
:1052A00087B008AA52F8043B05920390049100923B
:1052B0004FF0FF3203A90448FFF736FC07B05DF852
:1052C00004EB02B0704700BFE740000881F00041E6
:1052D00002E000BF83F0004330B54FEA41044FEADB
:1052E000430594EA050F08BF90EA020F1FBF54EA76
:1052F000000C55EA020C7FEA645C7FEA655C00F012
:10530000E2804FEA5454D4EB5555B8BF6D420CDDE2
:105310002C4480EA020281EA030382EA000083EA65
:10532000010180EA020281EA0303362D88BF30BD05
:1053300011F0004F4FEA01314FF4801C4CEA11315B
:1053400002D0404261EB410113F0004F4FEA0333BA
:105350004CEA133302D0524263EB430394EA050F45
:1053600000F0A780A4F10104D5F1200E0DDB02FAB4
:105370000EFC22FA05F2801841F1000103FA0EF248
:10538000801843FA05F359410EE0A5F120050EF10E
:10539000200E012A03FA0EFC28BF4CF0020C43FA3F
:1053A00005F3C01851EBE37101F0004507D54FF04C
:1053B000000EDCF1000C7EEB00006EEB0101B1F59C
:1053C000801F1BD3B1F5001F0CD349085FEA3000E2
:1053D0004FEA3C0C04F101044FEA445212F5800FED
:1053E00080F09A80BCF1004F08BF5FEA500C50F18A
:1053F000000041EB045141EA050130BD5FEA4C0C6D
:10540000404141EB010111F4801FA4F10104E9D1F5
:1054100091F0000F04BF01460020B1FA81F308BFEC
:105420002033A3F10B03B3F120020CDA0C3208DDB8
:1054300002F1140CC2F10C0201FA0CF021FA02F193
:105440000CE002F11402D8BFC2F1200C01FA02F103
:1054500020FA0CFCDCBF41EA0C019040E41AA2BF28
:1054600001EB0451294330BD6FEA04041F3C1CDAF0
:105470000C340EDC04F11404C4F1200220FA04F010
:1054800001FA02F340EA030021FA04F345EA0301BA
:1054900030BDC4F10C04C4F1200220FA02F001FA7C
:1054A00004F340EA0300294630BD21FA04F02946FE
:1054B00030BD94F0000F83F4801306BF81F4801197
:1054C0000134013D4EE77FEA645C18BF7FEA655C0A
:1054D00029D094EA050F08BF90EA020F05D054EADC
:1054E000000C04BF1946104630BD91EA030F1EBFE1
:1054F0000021002030BD5FEA545C05D140004941E5
:1055000028BF41F0004130BD14F580043CBF01F5D7
:10551000801130BD01F0004545F0FE4141F47001BD
:105520004FF0000030BD7FEA645C1ABF1946104698
:105530007FEA655C1CBF0B46024650EA013406BF99
:1055400052EA033591EA030F41F4002130BD00BF58
:1055500090F0000F04BF0021704730B54FF4806415
:1055600004F132044FF000054FF0000150E700BF96
:1055700090F0000F04BF0021704730B54FF48064F5
:1055800004F1320410F0004548BF40424FF00001E2
:105590003EE700BF42004FEAE2014FEA31014FEA25
:1055A00002701FBF12F07F4393F07F4F81F0605174
:1055B000704732F07F4208BF704793F07F4F04BFBF
:1055C00041F40021704730B54FF4607401F000459C
:1055D00021F000411CE700BF50EA010208BF7047FC
:1055E00030B54FF000050AE050EA010208BF7047ED
:1055F00030B511F0004502D5404261EB41014FF456
:10560000806404F132045FEA915C3FF4D8AE4FF05D
:1056100003025FEADC0C18BF03325FEADC0C18BF40
:10562000033202EBDC02C2F1200300FA03FC20FA91
:1056300002F001FA03FE40EA0E0021FA02F11444DE
:10564000BDE600BF70B54FF0FF0C4CF4E06C1CEAF7
:1056500011541DBF1CEA135594EA0C0F95EA0C0F68
:1056600000F0DEF82C4481EA030621EA4C5123EADB
:105670004C5350EA013518BF52EA033541F480110A
:1056800043F4801338D0A0FB02CE4FF00005E1FBBD
:1056900002E506F00042E0FB03E54FF00006E1FB07
:1056A00003569CF0000F18BF4EF0010EA4F1FF044A
:1056B000B6F5007F64F5407404D25FEA4E0E6D418A
:1056C00046EB060642EAC62141EA55514FEAC5209B
:1056D00040EA5E504FEACE2EB4F1FD0C88BFBCF517
:1056E000E06F1ED8BEF1004F08BF5FEA500E50F1C8
:1056F000000041EB045170BD06F0004646EA01018E
:1057000040EA020081EA0301B4EB5C04C2BFD4EBBF
:105710000C0541EA045170BD41F480114FF0000EB8
:10572000013C00F3AB8014F1360FDEBF002001F026
:10573000004170BDC4F10004203C35DA0C341BDCA0
:1057400004F11404C4F1200500FA05F320FA04F072
:1057500001FA05F240EA020001F0004221F00041A6
:1057600010EBD37021FA04F642EB06015EEA430E19
:1057700008BF20EAD37070BDC4F10C04C4F1200549
:1057800000FA04F320FA05F001FA04F240EA0200FC
:1057900001F0004110EBD37041F100015EEA430ECD
:1057A00008BF20EAD37070BDC4F1200500FA05F2ED
:1057B0004EEA020E20FA04F301FA05F243EA02036C
:1057C00021FA04F001F0004121FA04F220EA02007B
:1057D00000EBD3705EEA430E08BF20EAD37070BDC1
:1057E00094F0000F0FD101F00046400041EB0101A1
:1057F00011F4801F08BF013CF7D041EA060195F083
:10580000000F18BF704703F00046520043EB03033C
:1058100013F4801F08BF013DF7D043EA0603704729
:1058200094EA0C0F0CEA135518BF95EA0C0F0CD034
:1058300050EA410618BF52EA4306D1D181EA03017A
:1058400001F000414FF0000070BD50EA410606BF74
:105850001046194652EA430619D094EA0C0F02D1B9
:1058600050EA013613D195EA0C0F05D152EA0336FE
:105870001CBF104619460AD181EA030101F000411C
:1058800041F0FE4141F470014FF0000070BD41F065
:10589000FE4141F4780170BD70B54FF0FF0C4CF43F
:1058A000E06C1CEA11541DBF1CEA135594EA0C0F5E
:1058B00095EA0C0F00F0A7F8A4EB050481EA030EAB
:1058C00052EA03354FEA013100F088804FEA033392
:1058D0004FF0805545EA131343EA12634FEA022260
:1058E00045EA111545EA10654FEA00260EF0004121
:1058F0009D4208BF964244F1FD0404F5407402D273
:105900005B084FEA3202B61A65EB03055B084FEA03
:1059100032024FF480104FF4002CB6EB020E75EB00
:10592000030E22BFB61A754640EA0C005B084FEA28
:105930003202B6EB020E75EB030E22BFB61A7546A5
:1059400040EA5C005B084FEA3202B6EB020E75EBF0
:10595000030E22BFB61A754640EA9C005B084FEA68
:105960003202B6EB020E75EB030E22BFB61A754675
:1059700040EADC0055EA060E18D04FEA051545EA64
:1059800016754FEA06164FEAC30343EA52734FEA0D
:10599000C2025FEA1C1CC0D111F4801F0BD141EA86
:1059A00000014FF000004FF0004CB6E711F4801FEB
:1059B00004BF01430020B4F1FD0C88BFBCF5E06FCB
:1059C0003FF6AFAEB5EB030C04BFB6EB020C5FEADB
:1059D000500C50F1000041EB045170BD0EF0004E30
:1059E0004EEA113114EB5C04C2BFD4EB0C0541EA62
:1059F000045170BD41F480114FF0000E013C90E65F
:105A000045EA060E8DE60CEA135594EA0C0F08BF22
:105A100095EA0C0F3FF43BAF94EA0C0F0AD150EA21
:105A200001347FF434AF95EA0C0F7FF425AF1046B4
:105A300019462CE795EA0C0F06D152EA03353FF4DC
:105A4000FDAE1046194622E750EA410618BF52EA59
:105A500043067FF4C5AE50EA41047FF40DAF52EA2D
:105A600043057FF4EBAE12E74FF0FF3C06E000BFCA
:105A70004FF0010C02E000BF4FF0010C4DF804CDD7
:105A80004FEA410C7FEA6C5C4FEA430C18BF7FEA97
:105A90006C5C1BD001B050EA410C0CBF52EA430CC5
:105AA00091EA030F02BF90EA020F0020704710F145
:105AB000000F91EA030F58BF994208BF90422CBFD4
:105AC000D8176FEAE37040F0010070474FEA410CCD
:105AD0007FEA6C5C02D150EA013C07D14FEA430CEB
