:020000040800F2
:1000000000500020653400086334000861340008A3
:100010006134000861340008613400080000000009
:100020000000000000000000000000006334000831
:1000300063340008000000006334000863340008E3
:10004000613400086134000861340008613400083C
:10005000613400086134000861340008613400082C
:10006000613400086134000861340008613400081C
:10007000613400086134000861340008613400080C
:1000800061340008613400086134000861340008FC
:1000900061340008613400086134000861340008EC
:1000A00061340008613400086134000861340008DC
:1000B00061340008613400086134000861340008CC
:1000C00061340008613400086134000861340008BC
:1000D00061340008613400086134000861340008AC
:1000E000613400086134000861340008613400089C
:1000F000613400086134000861340008613400088C
:10010000613400086134000861340008613400087B
:10011000613400086134000861340008613400086B
:10012000613400086134000861340008613400085B
:10013000613400086134000861340008613400084B
:10014000613400086134000861340008613400083B
:1001500010B582B04FF4437002F09EFA104CB023F9
:1001600002220321204601F0CDFC40230122002180
:10017000204601F0C7FC04F52054204602F00EFB97
:1001800000220192009213463821204602F027FCFB
:10019000204602F095FB204602F0FBFB02B010BDAA
:1001A0000008014030B589B000F06AF8204804F03A
:1001B00089F802F027F94FF4417002F06DFA1D4CF6
:1001C0004FF4005300220221204601F09BFC40F234
:1001D000023002F061FA40F2973002F05DFA164DFB
:1001E0004FF4805300220121284601F08BFC40F29D
:1001F000172002F06EFA4FF48051284601F0D4FC2B
:100200004FF40051204601F0CDFCFFF7A1FF002381
:100210008DF80430182101A800F0E6F901A800F0DB
:10022000E9F900F05BF90446204602F029FCFBE7FF
:10023000B04300080010014000080140074B1B7844
:1002400043B110B402460C4610462146ABBE002016
:1002500010BC70474FF0FF30704700BF0102002014
:100260000AB90020704700B585B001900291039251
:1002700001A90520FFF7E2FF05B05DF804FB0000CF
:10028000034B01221A70034B00221A70704700BF03
:1002900001020020B00100200023024A1370024A2C
:1002A0001370704701020020B0010020084B1B783A
:1002B00003B9704710B5064C204601F0FDFA02461E
:1002C00021460220FFF7CCFF0023237010BD00BFA2
:1002D000B0010020F8B506460C460B4801F0ECFAD8
:1002E00005194F2D08D8084F22463146384601F0EF
:1002F00011FB00237B55F8BDFFF7D8FF224631469E
:100300000220FFF7ADFFF6E7B001002000B583B093
:100310008DF8070001210DF10700FFF7DBFF9DF8C5
:1003200007300A2B02D003B05DF804FBFFF7BEFFD5
:10033000F9E7000070B504460D464FF40072002145
:10034000284601F069FA6402084E4FF480732A4689
:100350002146304601F0D9F84FF480732A46E1185F
:10036000304601F0D2F8002070BD00BF00300140DF
:1003700070B504460E460121274801F00FF87CB302
:1003800014F0070F36D0244D0121284601F006F85D
:1003900064024FF4807332462146284601F0E8F8A3
:1003A000054621461D4803F08DFFB5F1FF3F2BD0D8
:1003B000194D0121284600F0F1FF04F580744FF437
:1003C000807332462146284601F0D2F80546214680
:1003D000124803F077FFB5F1FF3F19D0002070BD40
:1003E000202200210C4801F002F921460C4803F0BC
:1003F00069FFC8E720226102074801F0F8F82146AA
:10040000074803F05FFFBEE7064803F05BFFCFE756
:10041000044803F057FFE1E700300140E8430008DB
:10042000C043000804440008000A7047C0B2704787
:1004300070B505464FF6FF73994208D10E4B002266
:100440001146284602F03EFC002811DB70BD0E4626
:100450000A4803F037FF0024092CEFDC084B53F85F
:100460002430002BEAD03146284698470134F3E780
:10047000044803F027FFE9E79907000864460008ED
:10048000040200207C46000810B588B004460D48E0
:1004900003F018FF002307930B4B06930B4B0593B8
:1004A0004FF4804304930A4B03930A4B02930A4B85
:1004B00001934022009201238221204600F098FD02
:1004C00008B010BD3C460008710300083503000861
:1004D000484600084C4600085846000810B584B04D
:1004E0004FF480730293124B019308230093114B36
:1004F000114A1249124802F091FA124C2060FFF79B
:10050000C3FF206800F042FE0F49206802F0DEFEC3
:10051000002808DB0B4C4FF6FF712068FFF788FFBF
:10052000206804B010BD094803F0CCFEF2E700BF1C
:100530009602002004000020C44400080C45000876
:100540008C49000898030020310400080447000883
:1005500008B5002300E00133092B0CDC094A52F8EE
:1005600023201AB18A42F6D1002008BD054A42F87C
:1005700023100020F9E7044803F0A4FE4FF0FF30F9
:10058000F3E700BF040200205444000838B50020FF
:1005900000E0013009281CDC114C04EBC004646845
:1005A00074B10F4D15F830508D42F2D10C4D05EB62
:1005B000C0056D789542ECD19C42EAD100200DE057
:1005C000074C04F8301004EBC00042704360002078
:1005D00004E0044803F076FE4FF0FF3038BD00BF62
:1005E0002C0200202844000808B5013101F0FAF976
:1005F00008BD0000074B00221A7048B110B5014633
:100600001C461822184601F0B3F90023237610BDCA
:10061000704700BF7C020020F8B506460C464D88A6
:100620002846FFF701FF07462846FFF7FFFE05466D
:100630003146464803F046FE2178454803F042FE25
:100640006178444803F03EFE6188CAB2090A424814
:1006500003F038FEA188CAB2090A404803F032FE0E
:10066000E188CAB2090A3E4803F02CFE23780BB198
:10067000802B19D1802B1BD013B96278052A59D051
:1006800013B96278092A59D0802B02D16378092BDB
:1006900058D0344803F016FE3946334803F012FEB2
:1006A0002946324803F00EFE314803F00BFEF8BD38
:1006B0006278062AE0D12F4803F004FE7B1E0E2B41
:1006C000EAD801A252F823F0050700080D07000838
:1006D000150700081D0700082507000899060008EF
:1006E000990600089906000899060008990600086E
:1006F000990600089906000899060008990600085E
:100700002D0700081C4803F0DDFDC5E71B4803F07A
:10071000D9FDC1E71A4803F0D5FDBDE7194803F03C
:10072000D1FDB9E7184803F0CDFDB5E7174803F050
:10073000C9FDB1E7164803F0C5FDADE7154803F064
:10074000C1FDA9E7134803F0BDFDA5E7204500085A
:10075000244500082C450008384500084445000899
:1007600050450008B8450008BC450008C8450008C9
:10077000BC4300085C450008684500087045000857
:100780007845000880450008884500089045000825
:1007900098450008A84500082DE9F04782B0814639
:1007A0000D4690469A460A9E002400E00134092C2A
:1007B00018DC154B03EBC4035F689FB12B78124A1A
:1007C00002EBC40149780B4012F834209342EDD17A
:1007D00000965346424629464846B84703460128F4
:1007E000E4D80AE02B78802B02D16B78062B08D056
:1007F00029460648FFF710FF0223184602B0BDE85D
:10080000F0870223F9E700BF2C02002024440008EF
:1008100080F8701280F8712280F87232704708B543
:1008200000231A461946FFF7F3FF08BD1030704742
:1008300002B1704738B50C4605460846FFF7F6FF8B
:100840008278C37843EA0223E362037923630022B8
:1008500062635B0263622846FFF7E1FF38BDAAB915
:1008600010B50C460846FFF7E1FF43781B0403F47C
:10087000F813827843EA0223C2781343E3620379D0
:100880002363002262635B02236210BD7047CAB912
:1008900010B50C460846FFF7C9FF8278C3781B04E1
:1008A00043EA0263027943EA022342791343E36293
:1008B000C279037A43EA02232363002262635B0264
:1008C000236210BD704702B1704738B50C4605462B
:1008D0000846FFF7ABFF8278C3781B0443EA026344
:1008E000027943EA022342791343E362C279037A2D
:1008F00043EA022323635B0263622846FFF78FFF0C
:1009000038BD02B1704708B5C37D81F83830C38A5D
:1009100081F8393043691B0A81F83A30436981F81C
:100920003B30002381F83C3081F83D30022281F8D1
:100930003E2081F83F3008234B62FFF770FF08BD6F
:10094000DAB9F0B406460C460B7D4B620B4D0FCD69
:10095000A063E163226463642B88A4F8483096F8AE
:10096000703284F83A3096F8713284F8443096F850
:10097000723284F84530F0BC704770475847000821
:1009800072B904234B62032381F83830002381F8C5
:10099000393081F83A300422A1F84222A1F84432D9
:1009A000704702B1704708B5082381F83B30C37D1A
:1009B00081F83C30C38A81F83D3043691B0A81F8D5
:1009C0003E30436981F83F30022281F84020002305
:1009D00081F8413081F8422081F843300C234B628A
:1009E000FFF71DFF08BD4978FE2903D0FF2907D076
:1009F0000220704712680021117001201880704792
:100A00000120704730B583B00546114803F05AFC09
:100A1000104C114B0093637902222179284602F091
:100A20003CF80E4B0093E3790222A179284602F0AC
:100A300034F80B4B7F2221212846FFF7A7FD002821
:100A400001DB03B030BD074803F03CFCF9E700BF11
:100A5000204800089C030020E90E0008CD0C000887
:100A6000E70900083448000802B1704770B5054630
:100A700001F138064FF400720021304600F0CCFE40
:100A800000246B69A34205D9EB693146204698479B
:100A90000134F6E72846FFF7C2FE70BD002A7DD17B
:100AA0002DE9F0410C4680460846FFF7BFFE43782B
:100AB00013F0010F08D0817800294DD080295CD037
:100AC000374803F0FFFB45E024236362354F04F110
:100AD000380607F1200C3D460FCD30607160B260E2
:100AE000F3602F4610366545F5D128683060D8F898
:100AF0000850284600F0E0FE0246082828BF0822D9
:100B0000294604F1400000F011FED8F80C502846A8
:100B100000F0D2FE0246102828BF1022294604F118
:100B2000480000F003FED8F81050284600F0C4FE3C
:100B30000246042828BF0422294604F1580000F088
:100B4000F5FD2423A4F842320023A4F844324046A1
:100B5000FFF765FEBDE8F08106236362124B18685B
:100B6000A0639B88A3870623A4F842320023A4F83D
:100B700044324046FFF753FEECE70C2363620B4B15
:100B800007CBA063E16322640C23A4F84232002364
:100B9000A4F844324046FFF742FEDBE7704700BF4F
:100BA0007848000834470008204700082847000814
:100BB00038B505460C461046BAB9002381F83932DB
:100BC00045F25532A1F83A2245F24232A1F83C22D0
:100BD000D1F80520C1F83E22A1F84232A1F84432F2
:100BE00081F846324B620B628B62217C2A295BD8EA
:100BF000DFE801F0165A5A201A5A5A5A2C5A445A07
:100C00005A5A5A5A5A5A325A5A5A5A5A5A5A265AA0
:100C10005A16565A5A5A5A505A385A5A3E5A4A002E
:100C20002846FFF7FCFD38BD024621462846FFF75F
:100C30001BFFF8E7024621462846FFF781FEF2E750
:100C4000024621462846FFF79BFEECE70246214676
:100C50002846FFF7EDFDE6E7024621462846FFF766
:100C60001DFFE0E7024621462846FFF74AFEDAE785
:100C7000024621462846FFF726FED4E702462146D3
:100C80002846FFF7ECFDCEE7024621462846FFF74F
:100C9000FEFDC8E7024621462846FFF782FEC2E76E
:100CA0002846FFF7BCFDBEE7074803F00BFB002317
:100CB000202205212846FFF7ABFD00236362236253
:100CC000012384F84632AEE75448000870B5054663
:100CD0000E46814B93F82820C2F11F03002B3EDC07
:100CE0007D4B1A6D9B6C9A427AD27B4B9B6D23B1E4
:100CF0001AB9794B1B6A03B19847774CA36C226DE4
:100D0000991AE3798B42A8BF0B46C2F30802383226
:100D100022449BB228323146284601F0E6FE236D7C
:100D200018442065A36D73B1C0F3080058B921467B
:100D3000606DE26DE36960311044984768BB664AB4
:100D4000D36D0133D365644B93F860324BB3624B80
:100D500093F86122C2F10D03002B2DDC70BD5E4CB7
:100D6000E1798B42A8BF0B4622449BB2293231461F
:100D700001F0BBFE94F828301844C0B284F8280073
:100D80001F28ADD1002204F128012046FFF710FFF3
:100D9000226DA36C9A42A3D2E0E7504803F092FA86
:100DA000CDE74D4C012204F128012046FFF700FF5A
:100DB000012384F86032CAE7474CE1798B42A8BF2F
:100DC0000B4602F50E7222449BB22A322179284644
:100DD00001F085FE94F86132184484F86102BDE7A1
:100DE0003D4BDB6C9A4232D23B4B9B6DABB11AB997
:100DF000394B1B6A03B19847374B1B6DC3F308038C
:100E00005BB93549486DCA6D8B69603110449847AC
:100E1000C8B9314AD36D0133D3652F4CE36C226DD1
:100E2000991AE3798B42A8BF0B46C2F30802383205
:100E300022449BB228322179284601F050FE236DCE
:100E4000184420658AE7264803F03CFAE1E7224B84
:100E50009B6D1BB1204AD26D93421FD01E4B93F85D
:100E6000603273B31C4B93F86122C2F10D03002B67
:100E70007FF774AF184CE1798B42A8BF0B4602F59F
:100E80000E7222449BB22A322179284601F027FEB5
:100E900094F86132184484F861025FE70E49486DA6
:100EA000CB6960311044984738B90B4B0022DA65A2
:100EB0005B6A002BD2D09847D0E70A4803F002FAC9
:100EC000F3E7054C012204F128012046FFF770FEEC
:100ED000012384F86032C5E79C030020A84700087E
:100EE000C8470008E447000870B505460E463E4B6B
:100EF0001A6DDB6C9A422BD23B4B9B6D73B1C2F3E4
:100F000008025AB93849486DCA6D8B69603110447E
:100F10009847C8B9344AD36D0133D365324CE36C7A
:100F2000226D991AE3798B42A8BF0B46C2F30802DF
:100F3000383222449BB228323146284601F0CFFD98
:100F4000236D1844206570BD284803F0BBF9E1E724
:100F5000254B9B6D1BB1244AD26D93421DD0224B71
:100F600093F860320BB3204B93F86122C2F10D036A
:100F7000002B25DC0D2AE6D11B4B4FF0FF325A65C2
:100F800000229A65DA6583F828209A64DA641A6583
:100F900083F8612283F86022D5E7134B0022DA65DB
:100FA0005B6A002BDBD09847D9E70F4C012204F194
:100FB00028012046FFF7FCFD012384F86032D2E7C8
:100FC000094CE1798B42A8BF0B4602F50E72224410
:100FD0009BB22A323146284601F081FD94F86132F5
:100FE000184484F86102AEE79C030020044800081E
:100FF000F8B504460F4616461D461B4803F062F935
:101000001A4804600771467185719DF81830C371E4
:10101000079B8360089BC360099B03610A9B013B9C
:1010200043610B9B83610C9BC3610023036243629A
:101030004FF0FF3242658365C36580F828308364D2
:10104000C364036580F8603280F86132FFF7E7FB24
:1010500007492046FFF77CFA002801DB0348F8BD6A
:10106000044803F02FF9F9E76C4700089C030020BF
:10107000050A00088447000808B54978212905D0E9
:1010800022291ED0202911D0022008BD1988062946
:1010900005D90D49116007221A800120F5E70A469B
:1010A00007210A4803F00EF90020EEE71A88062A05
:1010B00001D90120E9E70721044803F003F90020E2
:1010C000E3E70120E1E700BF4C490008CC480008F5
:1010D00008B5024803F0F6F808BD00BFC448000890
:1010E00010B582B00446144803F0ECF8134B00939B
:1010F000402302220321204601F0CFFC002300936D
:10110000402302228421204601F0C7FC0C4B0093AF
:10111000102303228521204601F0BFFC094B7F22CA
:1011200021212046FFF732FA002801DB02B010BD72
:10113000054803F0C7F8F9E70C4900084D1100080D
:10114000D1100008791000082849000838B5054674
:1011500040230C4A032101F0C8FC00B938BD034606
:10116000402828BF40239BB2064C0022E25422466E
:101170008421284601F0B3FC2146034803F0A2F87D
:10118000ECE700BF100600200049000810B5044637
:10119000064803F097F806492046FFF7D9F90028DA
:1011A00000DB10BD034803F08DF8FAE7944800080F
:1011B000E1100008A848000838B504460D464FF471
:1011C000677001F069FA40F29B3001F065FA00F0B7
:1011D0000BFD064BAAB223F83420640001342D0C19
:1011E00023F8245000F008FD38BD00BF046C004017
:1011F00043000133034A32F8231032F8300040EA4A
:1012000001407047046C004030B48AB000212022B5
:1012100008E04B0843EAC113DBB21149895C0B4477
:10122000D9B201322A2AF4D90D4B597301AC0D4DB4
:101230000FCD0FC40FCD0FC42B6823700023B3F55F
:10124000805F09D203F01F020AA90A4412F8241C85
:10125000054AD1540133F2E700200AB030BC704790
:10126000640000205449000854060020F8B50446E4
:101270000F464FF400720021384600F0CDFA032CDF
:1012800035D8DFE804F0021E1E25204D3C4605F14E
:10129000300C2E460FCE20606160A260E3603546C0
:1012A00010346645F5D107CD20606160A2602B88BF
:1012B000A381552387F8FE31AA2387F8FF31002048
:1012C000F8BD4FF480721249384600F02FFAF6E765
:1012D000104E3D4606F1400734460FCC2860696049
:1012E000AA60EB6026461035BC42F5D1E7E7A4F1D1
:1012F0002703072BE3D8084B23444FF40072074918
:1013000001EB4321384600F011FAD8E72400002011
:10131000A400002064000020D9FF7F0054060020B4
:10132000002070478020704738B5044601F054FA19
:101330000521204601F07FFA0021204601F07BFACA
:10134000C5B2204601F04DFA284638BD38B50446EE
:1013500001F042FA3521204601F06DFA00212046C5
:1013600001F069FAC5B2204601F03BFA284638BDC3
:1013700010B504462046FFF7D7FF10F0010FF9D152
:1013800010BD10B50446FFF7F3FF2046FFF7CCFF72
:10139000400880F0010000F0010010BD38B504469F
:1013A0000D46FFF7E5FF204601F016FA3DB1062194
:1013B000204601F040FA204601F013FA38BD04211E
:1013C000F6E738B50446FFF7D3FF204601F004FAEC
:1013D0009021204601F02FFA0021204601F02BFA3F
:1013E0000021204601F027FA0021204601F023FACF
:1013F0000021204601F01FFA000285B2002120469C
:1014000001F019FA0543ADB2204601F0EAF9284689
:1014100038BD38B50546FFF7ABFF284601F0DCF9CB
:101420009F21284601F007FA0021284601F003FA1F
:1014300004020021284601F0FEF9044324020021A1
:10144000284601F0F8F90443284601F0CAF920467D
:1014500038BD08B5FFF7DDFFC0B208BDF8B50546D9
:101460000F46082A0DD8164622B32846FFF780FFFC
:10147000284601F0B1F94B21284601F0DCF900249F
:1014800007E00826F1E70021284601F0D4F90134ED
:10149000E4B2032CF7D90024A3B2B34207D200214F
:1014A000284601F0C8F938550134E4B2F4E728467B
:1014B00001F097F9F8BD38B504460D4659B12046FC
:1014C00001F08AF955B1AB21204601F0B4F920466C
:1014D00001F087F938BDFFF74BFFF0E7B921F3E7DB
:1014E00010B50446FFF74DFF08B1002010BD20469F
:1014F00001F072F9C721204601F09DF9204601F064
:1015000070F92046FFF73DFFF0E72DE9F0418046F6
:101510000E4614461D46FFF72BFF404601F05CF9CE
:101520000B21404601F087F9310C404601F083F968
:10153000C6F30721404601F07EF9F1B2404601F0C2
:101540007AF90021404601F076F96F1E55B100216D
:10155000404601F070F9224602F8010B01361446AC
:101560003D46F2E7404601F03CF93046BDE8F081E7
:10157000F8B507460D4614461E460121FFF70EFF3B
:101580003846FFF7F5FE3846FFF7FBFE38B14FF05F
:10159000FF352846F8BD384601F023F916BB002E6A
:1015A000F7D0384601F018F90221384601F043F926
:1015B000290C384601F03FF9C5F30721384601F000
:1015C0003AF9E9B2384601F036F9002EE3D014F8C2
:1015D000011B384601F02FF9013E013515F0FF0FD0
:1015E000F3D1D8E701213846FFF7D8FED7E770B529
:1015F00005460C461646FFF7C4FE80BB0346522E36
:1016000025D0D82E28D0202E1FD124F47F6424F09A
:101610000F04284601F0E0F83146284601F00BF9A6
:10162000210C284601F007F9210A01F0F0012846B3
:1016300001F001F90021284601F0FDF8284601F0EB
:10164000D0F82846FFF79DFE0346184670BD24F4E7
:10165000FF4424F07F04DCE7240C2404D9E70023B2
:10166000F3E700002DE9F04182B0044688461746B2
:101670001D462B4B984237D040F28E3001F00CF8CB
:10168000274B9C4233D0274E4FF430430222032194
:10169000304600F037FA4FF48043012200213046F3
:1016A00000F030FA4FF48051304600F07BFA2046CB
:1016B00001F074F86DB3002285F00103B8F1000F5A
:1016C00029D0002157B30020019000919DF82010EF
:1016D000204601F084F9204601F0F2F8204601F09E
:1016E00058F902B0BDE8F0814FF44370C6E70E4EE2
:1016F000B02302220321304600F004FA40230122E5
:101700000021304600F0FEF91021304600F04AFA80
:10171000CDE70222D0E74FF40061D3E78020D3E782
:1017200000300140000C014000080140844641EABD
:10173000000313F0030349D1403A23D30B6803603D
:101740004B6843608B688360CB68C3600B6903613F
:101750004B6943618B698361CB69C3610B6A036227
:101760004B6A43628B6A8362CB6AC3620B6B03630F
:101770004B6B43638B6B8363CB6BC36340304031F4
:10178000403ADBD230320BD30B6803604B684360C6
:101790008B688360CB68C36010301031103AF3D28D
:1017A0000C3205D351F8043B40F8043B043AF9D21B
:1017B000043208D0D2071CBF11F8013B00F8013BEE
:1017C00001D30B8803806046704700BF082A13D3FB
:1017D0008B07B1D010F00303AED0C3F10403D21ACB
:1017E000DB071CBF11F8013B00F8013BA4D331F823
:1017F000023B20F8023B9FE7043AD9D3013A11F8A3
:10180000013B00F8013BF9D20B7803704B78437031
:101810008B78837060467047F0B4860746D0541EBC
:10182000002A3CD0CAB2034602E014F1FF3436D39A
:1018300003F8012B9D07F8D1032C29D9CDB245EA35
:1018400005250F2C45EA054533D9A4F110063609C4
:1018500003F1200707EB061703F1100242E90455D4
:1018600042E902551032BA42F8D1721C14F00C0F42
:1018700003EB021204F00F0613D0331F23F003030F
:101880000433134442F8045B9342FBD106F0030493
:101890002CB1C9B21C4403F8011B9C42FBD1F0BC23
:1018A000704734461346002CF3D1F8E7144603463C
:1018B000C2E71A462646E0E720F0030110F00300D5
:1018C000C0F1000051F8043B00F1040C4FEACC0CCD
:1018D0006FF000021CBF22FA0CF213434FF0010C10
:1018E0004CEA0C2C4CEA0C4CA3EB0C0222EA03024F
:1018F00012EACC1204BF51F8043B0430F4D0C2F118
:10190000000102EA0102B2FA82F2C2F11F0200EB08
:10191000D2007047830730B427D10468A4F10133A3
:1019200023EA040313F0803F034608D153F8045F11
:10193000A5F1013424EA050414F0803FF6D01C78A8
:101940001CB113F8014F002CFBD101399D189D42A9
:1019500002F1FF3207D011F8014F03F8014B14B127
:10196000002AF4D11A7030BC70470346E7E700BF85
:1019700070B440EA0104A30727D1032A25D90B46F6
:101980000646194653F8045BA5F1013424EA050420
:1019900014F0803F06D1043A032A46F8045B194646
:1019A000EFD882B133460C78551E03F8014B74B161
:1019B00032442E4405E011F8014FF51A03F8014BAB
:1019C0002CB19A42F7D170BC70470646E9E7002D6A
:1019D000F9D000221D4403F8012BAB42FBD170BCAF
:1019E000704700BFF0B589B004460F466D46144EEF
:1019F0000FCE0FC533682B7005A800F073F8192FB0
:101A000028BF1927791E0D460023AB4214DA03EBD9
:101A1000D372521005A8825C08A800EB121010F8CF
:101A2000200CE05402F00F02581C08AE324412F8A9
:101A3000202C22540233E8E70023635409B0F0BDA0
:101A40007849000870B58AB0044607A800F04AF843
:101A50009DF827308DF814309DF826309DF81E2013
:101A600013448DF815309DF825308DF816309DF80B
:101A700024309DF81C2013448DF817309DF8233036
:101A80008DF818309DF822308DF819306D46114EC2
:101A90000FCE0FC533682B7005AA0DF11A039A42B9
:101AA00013D213780AA901EB131313F8283C21462B
:101AB00001F8023B12F8013B03F00F030AA80344AC
:101AC00013F8283C63700C46E7E7002323700AB044
:101AD00070BD00BF78490008014B1888704700BFEF
:101AE000E0F7FF1F044B1B680360044B1B68436057
:101AF000034B1B6883607047F0F7FF1FECF7FF1F75
:101B0000E8F7FF1FF0B507684668002409E004F510
:101B10007F553835AD00ADB20EE0B6460FE001346A
:101B2000A4B20F2C21D843FA04F515F0010FF6D01A
:101B3000072CECD8A500ADB2072CEED8BE464FF06E
:101B40000F0C0CFA05FC2EEA0C0E01FA05FC02350E
:101B500002FA05F54CEA050545EA0E05072C00D802
:101B60002F46072CDBD92E46D9E707604660F0BD2B
:101B7000014341F08001014B1960704700000140B2
:101B8000034A136823F0E06318430843106070476A
:101B900004000140024A136818431060704700BFF8
:101BA0001C00014001617047090401617047C3686E
:101BB00001EA030221EA030141EA0241016170479F
:101BC000806880B2704710B50C46FFF7F9FF2040DF
:101BD00010BDC160704741F48033836181618361CE
:101BE0008369836970470000024A136843F4807375
:101BF0001360704700700040024A136823F480733A
:101C00001360704700700040054A136823F0E0033A
:101C100013601368184340F010001060704700BF55
:101C200000700040024A136823F0100313607047ED
:101C300000700040024A136843F0080313607047C5
:101C400000700040024A136843F0040313607047B9
:101C500000700040024A136843F0020313607047AB
:101C600000700040024A136823F0020313607047BB
:101C700000700040024A136823F0010313607047AC
:101C800000700040024A136843F00103136070477C
:101C900000700040024A136843F480731360704779
:101CA00004700040024A136823F480731360704785
:101CB00004700040034B1B6813F0040F0CBF01209D
:101CC0000020704704700040024B1868C0F34000C9
:101CD000704700BF04700040024B186800F001001C
:101CE000704700BF0470004006282ED8DFE800F0DF
:101CF000040A10161C222800144A136843F48013A7
:101D000013607047114A136843F40013136070475F
:101D10000E4A136843F48003136070470B4A13683C
:101D200043F4002313607047084A136843F4802388
:101D300013607047054A136843F40033136070471B
:101D4000024A136843F4803313607047081002405E
:101D500006282ED8DFE800F0040A10161C222800FE
:101D6000144A136843F4805313607047114A136890
:101D700043F40053136070470E4A136843F48043E2
:101D8000136070470B4A136843F400631360704795
:101D9000084A136843F4806313607047054A136868
:101DA00043F4007313607047024A136843F480736E
:101DB000136070470810024006282ED8DFE800F0B4
:101DC000040A10161C222800144A136823F48053B6
:101DD00013607047114A136823F40053136070476F
:101DE0000E4A136823F48043136070470B4A13684C
:101DF00023F4006313607047084A136823F4806378
:101E000013607047054A136823F40073136070472A
:101E1000024A136823F4807313607047081002406D
:101E200008B5062828D8DFE800F004090E13181DAD
:101E30002200124B1868C0F3001008BD0F4B186841
:101E4000C0F34010F9E70D4B1868C0F38010F4E7B9
:101E50000A4B1868C0F3C000EFE7084B1868C0F3DE
:101E60008000EAE7054B1868C0F34000E5E7034B44
:101E7000186800F00100E0E701F03CFB08100240A8
:101E8000024A136843F400031360704708100240CD
:101E9000024B1868C0F3C010704700BF0810024022
:101EA000062828D8DFE800F004090E13181D2200C8
:101EB000124B1868C0F340607047104B1868C0F3AD
:101EC000C06070470D4B1868C0F3407070470B4BF3
:101ED0001868C0F340407047084B1868C0F34000D2
:101EE0007047074B1868C0F340007047054B1868EF
:101EF000C0F3400070470020704700BF0010024050
:101F0000201002402410024010B504462046FFF77E
:101F1000C7FF0028FAD010BD06282ED8DFE800F051
:101F2000040A10161C222800144A136843F0807318
:101F300013607047114A136843F080631360704761
:101F40000E4A136843F08053136070470B4A1368BE
:101F500043F4803313607047084A136843F0010369
:101F600013607047064A136843F00103136070471B
:101F7000044A136843F001031360704700100240E5
:101F8000201002402410024006282ED8DFE800F07E
:101F9000040A10161C222800144A136823F08073C8
:101FA00013607047114A136823F080631360704711
:101FB0000E4A136823F08053136070470B4A13686E
:101FC00023F4803313607047084A136823F0010339
:101FD00013607047064A136823F0010313607047CB
:101FE000044A136823F00103136070470010024095
:101FF0002010024024100240024A136843F40023D8
:102000001360704700100240024A136823F4002353
:102010001360704700100240034A136823F0030363
:1020200018431060704700BF04100240034A136851
:1020300023F4701343EA804010607047041002409C
:10204000034A136823F4706343EA0020106070476A
:102050002C100240034A136823F4704343EA003013
:10206000106070472C100240034A136823F4803339
:1020700043EA00401060704704100240034A1368AE
:1020800023F4003343EA40401060704704100240DC
:10209000024B186800F40040704700BF2010024057
:1020A000024A136843F40043136070472010024053
:1020B000062846D8DFE800F04040402C40041800D5
:1020C000204A136843F0010313601E4B1B6813F092
:1020D000020FFAD01B4B1A6822F440721A601A6879
:1020E00042F480721A607047174A136843F0010384
:1020F0001360154B1B6813F0020FFAD0114B1A68CE
:1021000022F440721A601A6842F400721A60704732
:102110000E4A136843F4803313600C4B1B6813F4AE
:10212000003FFAD0074B1A6822F440721A601A680E
:1021300042F440721A607047024A136823F44073F5
:10214000136070472010024024100240001002402B
:10215000034A136823F4404343EA80301060704719
:1021600004100240034A136823F4605343EAC0207A
:102170001060704704100240034A136823F4E063C0
:1021800043EA00201060704704100240034A1368BD
:1021900023F0F00343EA001010607047041002407F
:1021A00028B1064A136843F4800313607047034A5A
:1021B000136823F480031360704700BF04100240CB
:1021C000034A136823F00F0318431060704700BFE1
:1021D0002C100240034A136823F0F00343EA001076
:1021E000106070472C10024028B1064A136843F46F
:1021F000803313607047034A136823F480331360FD
:10220000704700BF2C100240024B1868C0F38100D9
:10221000704700BF0410024008B50420FFF77CFEA1
:102220000420FFF771FE0020FFF7F6FE0020FFF705
:10223000ADFF0320FFF78CFF0420FFF79DFF002078
:10224000FFF790FF022001F069F90E20FFF7EEFE84
:102250000020FFF709FF0020FFF75EFE0020FFF7D8
:1022600053FE0220FFF7D8FE044B054A1360054ACF
:1022700005491160054A136008BD00BF0090D003F6
:10228000A4010020A80100200048E801AC010020C2
:1022900008B50420FFF740FE0420FFF735FE0020BC
:1022A000FFF7BAFE0020FFF771FF0320FFF750FF92
:1022B0000420FFF761FF0020FFF754FF0120FFF724
:1022C0006FFF012001F02AF90A20FFF7AFFE00207E
:1022D000FFF7CAFE0020FFF71FFE0020FFF714FEE5
:1022E0000220FFF799FE044B044A1360044A054993
:1022F0001160054A136008BD006CDC02A4010020D7
:10230000A801002000366E01AC01002008B50420B1
:10231000FFF702FE0420FFF7F7FD0020FFF77CFE29
:102320000020FFF733FF0020FFF712FF0020FFF728
:1023300023FF0020FFF716FF002001F0EFF8042034
:10234000FFF774FE0020FFF78FFE0020FFF7E4FD8B
:102350000020FFF7D9FD0220FFF75EFE034B044A81
:102360001360044A1360044A136008BD00366E010E
:10237000A4010020A8010020AC01002008B5042021
:10238000FFF7CAFD0420FFF7BFFD0020FFF744FE62
:102390000320FFF7C1FD0320FFF7B6FD0120FFF783
:1023A0003BFE0020FFF7F2FE0020FFF7D1FE0020E9
:1023B000FFF7E2FE0020FFF7D5FE002001F0AEF8A7
:1023C0000120FFF733FE0120FFF74EFE0020FFF74C
:1023D00055FE0020FFF7A0FD0020FFF795FD02202D
:1023E000FFF71AFE034B044A1360044A1360044AC1
:1023F000136008BD00366E01A4010020A801002072
:10240000AC01002008B50420FFF786FD0420FFF78B
:102410007BFD0020FFF700FE0320FFF77DFD03207A
:10242000FFF772FD0120FFF7F7FD0020FFF7AEFE7A
:102430000320FFF78DFE0420FFF79EFE0020FFF72C
:1024400091FE022001F06AF80720FFF7EFFD01205E
:10245000FFF70AFE0020FFF711FE0020FFF75CFDEA
:102460000020FFF751FD0220FFF7D6FD044B054A7F
:102470001360054A05491160054A136008BD00BF95
:1024800000A24A04A4010020A80100200051250256
:10249000AC01002008B50420FFF73EFD0420FFF743
:1024A00033FD0020FFF7B8FD0320FFF735FD0320C3
:1024B000FFF72AFD0120FFF7AFFD0020FFF766FEC2
:1024C0000220FFF745FE0420FFF756FE0020FFF72D
:1024D00049FE022001F022F80420FFF7A7FD0120A9
:1024E000FFF7C2FD0020FFF7C9FD0020FFF714FD34
:1024F0000020FFF709FD0220FFF78EFD044B054A7F
:102500001360054A05491160054A136008BD00BF04
:1025100000A24A04A4010020A801002000512502C5
:10252000AC01002008B50420FFF7F6FC0420FFF7FB
:10253000EBFC0020FFF770FD0320FFF7EDFC03200C
:10254000FFF7E2FC0120FFF767FD0020FFF71EFE0A
:102550000220FFF7FDFD0420FFF70EFE0020FFF72D
:1025600001FE022000F0DAFF0720FFF75FFD0120E7
:10257000FFF77AFD0120FFF781FD0020FFF7CCFC7B
:102580000020FFF7C1FC0220FFF746FD044B054A7F
:102590001360054A05491160054A136008BD00BF74
:1025A00000A24A04A4010020A80100200051250235
:1025B000AC01002008B50320FFF7AEFC0320FFF7B5
:1025C000A3FC0120FFF728FD022000F0A7FF002058
:1025D000FFF7DCFD0220FFF7BBFD0420FFF7CCFD79
:1025E0000020FFF7BFFD0420FFF7F4FD0620FFF7F2
:1025F00027FD0120FFF790FC0120FFF785FC00205C
:10260000FFF73CFD0120FFF7EFFD0420FFF7D8FDA9
:102610000720FFF70BFD0120FFF726FD0020FFF745
:10262000BFFD0020FFF778FC0020FFF76DFC0220C3
:10263000FFF7F2FC044B054A1360054A0549116097
:10264000054A136008BD00BF00A24A04A40100208F
:10265000A801002000512502AC010020044B1A689B
:1026600042F480321A601A6822F480321A6070478D
:10267000201002400368194301607047036823EA91
:1026800001010160704703681943016070470368E6
:1026900023EA010101607047430903F1804303F518
:1026A00004331A6800F01F00012101FA00F0024310
:1026B0001A607047430903F1804303F504331A6835
:1026C00000F01F00012101FA00F022EA00021A6066
:1026D0007047430903F1804303F50433196800F0A0
:1026E0001F0201209040014319601A6822EA00008D
:1026F00018607047430903F1804303F504331A68F7
:1027000000F01F00012101FA00F002431A60704737
:10271000430903F1804303F504331A6800F01F00F6
:10272000012101FA00F022EA00021A60704700005D
:10273000034A136823F0706343EA00601060704737
:1027400004100240032802D0052806D07047064A2C
:10275000136843F4802313607047044A136843F0FE
:1027600004031360704700BF0010024020100240B5
:10277000032802D0052806D07047064A136823F4C0
:10278000802313607047044A136823F00403136026
:10279000704700BF001002402010024008B50D4BEA
:1027A000984212D003F57443984204D0A3F57843BD
:1027B000984205D008BD4FF4C670FFF78AFFF9E7CD
:1027C00040F20E20FFF785FFF4E740F20F20FFF7FD
:1027D00080FFEFE7003C0040036843F040030360E4
:1027E0007047036823F0400303607047024602F11C
:1027F0000803916811F0010FF9D0D06880B2196810
:1028000011F0020FFBD0196811F0800FFBD1136893
:1028100023F0400313607047C1607047836813F072
:10282000020FFBD0C1607047836813F0010FFBD02B
:10283000C06880B2704710B50446FFF7EDFFA3688B
:1028400013F0010FFBD0E06880B210BD036843F4C1
:10285000004303607047036823F40043036070473C
:10286000036843F400430360036823F48043036078
:102870007047036843F400430360036843F48043F4
:1028800003607047036843F40053036070470368B4
:1028900023F4005303607047036823F480530360FC
:1028A0007047036843F4805303607047036823F460
:1028B000806303607047036843F48063036070477C
:1028C000036823F4007303607047036843F40073E4
:1028D0000360436823F0040343607047036843F4D4
:1028E000807303607047036823F48073036070474C
:1028F000036843F0800303607047036823F080039C
:1029000003607047072907D8036823F038031B04C6
:102910001B0C43EAC10303607047036843F00403E0
:1029200003607047036823F0040303607047036883
:1029300043F0020303607047036823F0020303605F
:102940007047036843F0010303607047036823F096
:10295000010303607047436843F08003436070479E
:10296000436823F0800343607047436843F04003AB
:1029700043607047436823F04003436070474368F7
:1029800043F0200343607047436823F02003436013
:102990007047436843F0040343607047436823F083
:1029A000040343607047436843F002034360704789
:1029B000436823F0020343607047436843F0010318
:1029C00043607047436823F0010343607047032965
:1029D00004D8036823F0030319430160704710B45F
:1029E000046804F4415444F004042143114319439E
:1029F000019B1943029B1943436843F0040343605E
:102A00000160002010BC7047036823F4006303607A
:102A10007047036843F4006303607047F8B50446E9
:102A20000F4616461D4603689847C0F8DC4007600D
:102A300046608560069BC360079B0361BDF820303C
:102A40008382084B0367084BC366084B83660023E9
:102A500005E003F13202002140F822100133032B7C
:102A6000F7DDF8BDF52C0008312D0008BB2D00085E
:102A7000C16170470162704741627047816270476F
:102A800008B5D0F8DC305B6A984708BD08B5D0F8C7
:102A9000DC309B6A03B1984708BD30B583B0D0F8ED
:102AA000DC40A468069D0095A04703B030BD30B55A
:102AB00083B0044600258575C5750368DB790095EC
:102AC0002A462946FFF7E9FFD4F8DC305B6829463F
:102AD00020469847E36903B1984703B030BD10B56D
:102AE000D0F8DC40E469A04710BD10B5D0F8DC4058
:102AF000246AA04710BD08B5D0F8DC301B699847A0
:102B000008BD08B5D0F8DC309B69984708BD08B50A
:102B1000D0F8DC305B69984708BD884207D240B1E5
:102B200090FBF2F302FB130028B100207047002055
:102B30007047002070470120704710B504460368B5
:102B4000DA79838F9A4211D21346826B0021FFF704
:102B5000C6FF022384F82C302268D179A36B0B4482
:102B6000A363D279A38F9B1AA38710BD826B002128
:102B7000FFF7B5FF94F8443043B1022384F82C30BA
:102B8000002384F84430A387A363EEE70323F5E72B
:102B90002DE9F04182B00546884600F1480700243F
:102BA00000E00134032C18DC07EBC40257F8346052
:102BB0009EB198F8003051790B4012799342F0D1D0
:102BC00005F14003009305F13C0305F1380241464D
:102BD0002846B0470128E4D807E005F13C0305F199
:102BE00038024146284600F0EDFB02B0BDE8F08116
:102BF00010B5044601220021FFF77DFF002384F871
:102C00002C3010BD38B504460D4603698363CB886C
:102C10008387FFF7BDFFB0B1E98851B12368DA7946
:102C2000A08FFFF77AFF84F844002046FFF785FF66
:102C300038BD00231A4619462046FFF750FF0423EB
:102C400084F82C30F4E72046FFF7D2FFF0E708B510
:102C5000CA88838A9A4210D80369836300238387D2
:102C6000CA880368DB799A420AD9052380F82C3098
:102C700000221146FFF74BFF08BDFFF7B9FFFBE746
:102C8000062380F82C30F3E770B50546C48E828F9A
:102C9000A41A0368DB799C42A8BF1C46A6B2816BCC
:102CA00033460A440021FFF720FF864204D1AB8F50
:102CB0001844A887A0B270BD2846FFF799FF4FF0CF
:102CC000FF30F8E730B40024032C10DC04F10905D0
:102CD00050F835500DB10134F6E7093400EBC40566
:102CE00029716A7140F83430002030BC70474FF0D1
:102CF000FF30FAE738B5044600F1300500210164E1
:102D00000122FFF704FFE38E43B194F93030002B2A
:102D100009DB29462046FFF79AFF38BD29462046A1
:102D2000FFF770FFF9E729462046FFF76BFFF4E74E
:102D300010B5044690F82C30062B15D0072B2BD05D
:102D4000052B02D0FFF754FF36E0FFF79DFF002868
:102D500032DBE38EA28F9B1A2268D27993422BDC5E
:102D6000062384F82C3027E0FFF78EFF002823DBB2
:102D700004F130012046FFF70BFF48B100231A464B
:102D800019462046FFF7ABFE042384F82C3013E0ED
:102D90002046FFF72DFF0FE000231A461946FFF7E4
:102DA000A4FE002384F82C30236C1BB104F1300105
:102DB000204698470023236410BD10B5044690F8C0
:102DC0002C30032B09D0042B0FD0022B02D0FFF79D
:102DD0000FFF01E0FFF7B1FE10BD072380F82C3094
:102DE00000221146FFF793FEF6E7036C13B100F1E2
:102DF0003001984794F830301BB994F83130052BE6
:102E000003D0002384F82C30E6E7D4F8DC305B688C
:102E1000618EC9B220469847F3E7000A7047C0B2F6
:102E2000704708B50B7873B94B887F2B0DD8837525
:102E3000D0F8DC3093F830204AB15B684988C9B2D9
:102E40009847012000E0002008BD0020FCE7012099
:102E5000FAE770B54D8875B94FF0FF330133DBB237
:102E6000C3755BB3426803EB430403EB84030D3B80
:102E70001344002216E000230268527C9A420AD9C9
:102E8000426803EB430403EB8404224452799542E5
:102E900003D00133F0E74FF0FF33002BDEDA0020E0
:102EA00031E001321C79944208D9D3F80950140159
:102EB0002C59002CF5D000252570F2E70E4605466A
:102EC000D0F8DC30DB689847D5F8C8300BB1002368
:102ED00007E0012017E003F10902002145F8321054
:102EE0000133032BF7D9002400E00134032C09D867
:102EF00004F1320355F82330002BF6D071882846B0
:102F00009847F2E7012070BD1988012901D90121F4
:102F10001980C37D5BB1416803EB430003EB800381
:102F20000D3B0B4412685B791370012070471368E6
:102F300000221A70F9E770B54468C27D02EB4205C1
:102F400002EB85020D3A22448C881579AC4219D2E5
:102F5000D2F80920240116194D883679B54213D2CA
:102F600012595AB115701C46D0F8D83013B14A889E
:102F70008988984700232380012070BD002DF2D05E
:102F80000020FAE70020F8E70020F6E730B44468B4
:102F9000C07D00EB400500EB85000D3820448D8896
:102FA0000479A5420FD201241C80D0F809008B8837
:102FB0001B01C3582BB1197813681970012030BC5C
:102FC00070470021F8E70020F9E71988022901D9A4
:102FD00002211980116800230B70126853700120C0
:102FE00070471988022901D902211980116800232C
:102FF0000B7012685370012070472DE9F04F89B0B3
:10300000174607921D46466801EB410401EB840414
:1030100031190491335DAB4228BF2B469B461A46BB
:103020003846FEF783FB07EB0B0AA5EB0B05ADB2A9
:10303000335D01930023069385E0D7F80B40AC4243
:10304000A8BF2C46A4B222465046FEF76FFBA2440E
:103050002D1BADB2A3441FFA8BFBD7F80B30019A9E
:103060001A4493B201930136B6B2029B1B79B34264
:1030700021D9029BD3F80990C6EB061809EB080783
:1030800019F80840AC4228BF2C4622463946504623
:10309000FEF74CFBA2442D1BADB2A3441FFA8BFBE1
:1030A00019F80830019A13449BB20193D7F807101E
:1030B0000029C2D1D7E7039B01339BB20393049B42
:1030C000D3F80930059A13441A7903998A4236D9FC
:1030D000DF68039B03EB4306C6EBC606BB190293EE
:1030E000BC5DAC4228BF2C46224698461946504645
:1030F000FEF71CFBA2442D1BADB2A3441FFA8BFBB1
:10310000BB5D019A13449FB20197D8F80D10A1B18D
:10311000D8F81140AC42A8BF2C46A4B22246504673
:10312000FEF704FBA2442D1BADB2A3441FFA8BFB98
:10313000D8F811301F44BBB20193002695E7069BD7
:1031400001339BB20693049B1B79069A93421FD9C5
:10315000049BD3F80930069A1201059213449E6825
:103160009EB13478AC4228BF2C46224631465046A8
:10317000FEF7DCFAA2442D1BADB25C441FFA84FBBF
:103180003378019A13449BB201930023039396E78B
:10319000079B1A46019B5380584609B0BDE8F08F43
:1031A0002DE9F84306460F4691461D464C882046B9
:1031B000FFF735FE80462046FFF72FFE022810D08D
:1031C00003281AD0012802D00020BDE8F883336814
:1031D000C9F800301B782A88934228BF13462B80F9
:1031E000F3E73269C9F800202B885FFA88F130468E
:1031F000FFF703FF28800120E7E73469B8F1000FEB
:103200000FD10923A3700423E37023702B88042BB0
:1032100028BF04232B8003236370C9F800400120DA
:10322000D3E708F1FF38B3682BB3F268424524DDD9
:10323000B98840F20942914221D14FEA880753F8F8
:103240002800FEF739FB431C5B00DBB223709BB206
:103250002A88934228BF13462B8000222B885B08C4
:10326000013B9342D7DDB368DB59995C04EB420321
:1032700059800132F2E70020A7E70020A5E70020EF
:10328000A3E710B514461A88022A01D902221A802F
:103290008988C9B2FFF735FC2368003018BF0120C8
:1032A0001870236800225A70012010BD08B5898863
:1032B0000122C9B2FFF71FFC012008BD08B58988AB
:1032C0000022C9B2FFF717FC012008BD002300E06F
:1032D0000133032B0DDC03F1320250F822201AB126
:1032E0008A42F5D100207047323340F82310002085
:1032F00070474FF0FF307047C0F8D810704700009B
:1033000010B54C78092C12D8DFE804F00B1111111C
:1033100011050911070D084C06E0084C04E0084CA3
:1033200002E0084C00E0084C1CB1A04710BD002092
:10333000FCE70020FAE700BF232E0008092F000851
:10334000A1310008CB2F0008532E000810B54C788F
:103350000A2C08D00B2C08D00CB1002010BD054C55
:103360002CB1A047FAE7044CFAE7044CF8E7002038
:10337000F4E700BFE32F00088D2F0008372F000867
:1033800038B54C78012C05D065B26DB1032C07D04F
:10339000002038BD4C880CB9074C06E00020F8E747
:1033A0004C882CB9054C00E0054C1CB1A047F0E757
:1033B0000020EEE70020ECE7BD320008AD32000847
:1033C0008332000838B50C7814F0600F12D104F085
:1033D0001F04012C08D065B21DB1022C07D00020BB
:1033E00009E0FFF78DFF06E0FFF7B0FF03E0FFF70E
:1033F000C7FF00E0002038BD08B540F29730FFF766
:103400004BF9064A0023136005490B600C390B6029
:103410004FF41C431360034808BD00BF405C0040EC
:10342000505C0040541600200132520832B131F88D
:10343000023B40F8043B013A92B2F7E7704710B400
:1034400002F00104520832B131F8043B20F8023B8B
:10345000013A92B2F7E70CB10B78037010BC7047D9
:10346000FEE7704710B5184B1849194A934207D226
:1034700051F8042B43F8042BF7E7002243F8042B00
:10348000144A9342F9D3144A136843F40073136047
:10349000124C134B9C4203D254F8043B9847F8E774
:1034A000104C114B9C4203D254F8043B9847F8E768
:1034B000FCF778FE0D4C0E4B9C4203D254F8043BB3
:1034C0009847F8E710BD00BF00000020C849000879
:1034D000B00100205817002014ED00E0C849000892
:1034E000C8490008C8490008C8490008C849000878
:1034F000C8490008FEE708B5FFF7FCFF024A136859
:1035000043F010031360704700200240024A136822
:1035100023F010031360704700200240034A136831
:1035200023F0070318431060704700BF00200240DB
:10353000034B044A1A6002F188321A60704700BFD8
:10354000082002402301674541F08001014B1960CA
:10355000704700BF4C5C00403E2A16D9013AC2F3C6
:103560004412501C400180B242F020020A4B1B68FA
:103570009BB203EBC10306335B0003F1804303F509
:10358000C043920292B21A6070470132520890B260
:10359000400080B2EAE700BF505C0040F0B583B065
:1035A00007468C46089E444903C902AC04E903005F
:1035B0000CF07F05AC0004F1804404F5B8442168A8
:1035C00009B221F4E04121F07F01294389B2216051
:1035D000216809B221F4EC4121F0700102A800EB4E
:1035E000420232F9082C114389B221604FFA8CFC57
:1035F000BCF1000F00DB4DBB398B304A126892B230
:1036000002EBC502520002F1804202F5C042116095
:1036100026B105EB45018A003A449666226822F4F9
:10362000E04222F030021204120C2260226892B2B0
:1036300022F4E04222F0400282F0200242F40042F2
:1036400042F0800222603A8B1A443A83BCF1000FA8
:1036500001DA03B0F0BD1A463B8B1849096889B2FC
:1036600001EBC5010431490001F1804101F5C04180
:103670000B6029463846FFF76FFF26B105EB45057D
:10368000AB003B44DE66236823F4415323F0300350
:103690001B041B0C236023689BB223F4804323F09C
:1036A000700383F4405343F4004343F080032360EA
:1036B0003B8B18443883CCE7C0490008505C00407D
:1036C00030B40124072C18DCA10001F1804101F580
:1036D000B8410A6892B222F4E04222F0400248F275
:1036E00080052A430A600B689BB223F4804323F0D1
:1036F00070032B430B600134E4E70368DB7920336C
:103700005B00038330BC704710B40B4699B98C0042
:1037100004F1804404F5B844216889B221F4E04101
:1037200021F0400189B272B31020414041F40041C0
:1037300041F08001216013F0800F26D162B9990019
:1037400001F1804101F5B841086820F4415020F0B2
:1037500030000004000C08609B0003F1804303F577
:10376000B843196889B221F4804121F0700189B20F
:1037700072B34FF48052514041F4004141F0800156
:10378000196010BC70472020CFE703F07F039B0037
:1037900003F1804303F5B843196889B221F4E0418D
:1037A00021F0400189B28AB11020414041F400412A
:1037B00041F080011960002AE3D11A6822F4E04246
:1037C00022F030021204120C1A60DAE72020ECE733
:1037D0004FF44052CFE711F0800F0CD1890001F176
:1037E000804101F5B8410B6803F44053B3F5805FA5
:1037F00011D00020704701F07F01890001F1804164
:1038000001F5B8410B6803F03003102B01D0002004
:1038100070470120704701207047000011F0800FB1
:1038200027D1144B5A5492B1890001F1804101F51E
:10383000B8410B689BB223F4804323F0700383F4F8
:10384000005343F4004343F080030B60704789004A
:1038500001F1804101F5B8410B689BB223F480432C
:1038600023F0700383F4405343F4004343F0800398
:103870000B60704750170020F8B501F07F06B400C8
:1038800004F1804404F5B844276807F03007302F6E
:103890002DD01D461146174F3B689BB2F6003344AE
:1038A0005B0003F1804303F5C043188840002A46BB
:1038B00000F1804000F5C040FFF7B6FD3B689BB2C9
:1038C000334402335B0003F1804303F5C0431D60C2
:1038D000226892B222F4E04222F0400282F03002EA
:1038E00042F4004242F0800222602846F8BD0020E7
:1038F000FCE700BF505C00402DE9F0418D0005F170
:10390000804505F5B845286800F44050B0F5405FA3
:1039100050D029480468A4B2CE0034440634640070
:1039200004F1804404F5C0442088C0F309009842A3
:103930003EDA214B1B689BB2334406335B0003F134
:10394000804303F5C0431F88C7F309071046884624
:10395000194B1C68A4B234440434640004F180445C
:1039600004F5C044218849003A4601F1804101F53F
:10397000C041FFF764FD2B681BB223F0F0031B0569
:103980001B0D43F080032B600C4B13F8083063B918
:103990002B689BB223F4804323F0700383F44053DD
:1039A00043F4004343F080032B603846BDE8F081C8
:1039B0001F46CBE70027F8E7505C00405017002077
:1039C00070B506463F4B1C68A5B215F4806F29D12F
:1039D00014F4004F2ED115F4006F06D0394B4FF27E
:1039E000FF721A60336A03B1984715F4805F06D0FE
:1039F000344B4EF6FF721A60736A03B1984715F4A0
:103A0000007F06D02F4B4FF6FF521A60B36A03B106
:103A10009847B36A002B4ED02B4A136843F40073C7
:103A2000136070BD4FF6FF321A6040230383FFF727
:103A30003EF8F6E704F00F0415F0100F12D0A300C3
:103A400003F1804303F5B8431B6813F4006F01D101
:103A5000012216E0082300F130022146FFF74CFF57
:103A600002220EE0A20002F1804202F5B842136881
:103A70001BB223F0F0031B051B0D43F4004313603E
:103A8000002204EB440313441A3356F823301BB1CD
:103A90002146304698479EE7A10001F1804101F59B
:103AA000B8410B681BB223F0F0031B051B0D43F05C
:103AB00080030B608FE7044A136823F400731360DC
:103AC000AFE700BF445C0040405C00409A4200D237
:103AD00088547047704720B108B50B68496898470B
:103AE00008BD7047002301680A78303AD2B2092A2B
:103AF00008D803EB83035A004B1C03600B78134474
:103B0000303BF0E7184670472DE9F04F83B005468B
:103B1000019193461E46DDF830900D9CDDF838800B
:103B20000F9B13F0030F09D0A4B1013C571C33467F
:103B3000019919F80400A8473A46F5E72746474592
:103B4000F2D202F1010A334601992020A847013739
:103B50005246F4E70F9B13F0020F03D1104603B057
:103B6000BDE8F08FA2EB0B034345F7D2541C33465C
:103B700001992020A8472246F4E72DE9F04385B0BB
:103B80000C9D0D9C9DF83890DDF83C80DDF840E000
:103B9000DDF844C0129E16F0020F1FD1BCF1000FD9
:103BA0000AD016F0010F07D0B9F1000F02D116F0BC
:103BB0000C0F01D00CF1FF3C744508D21F2C06D825
:103BC00030272F550134F7E730272F55013416F0F1
:103BD000010F03D0644501D21F2CF5D916F0100F48
:103BE00015D016F4806F04D11CB1744521D0644502
:103BF0001FD0B8F1100F27D0B8F1100F2DD0B8F1A9
:103C0000020F33D01F2C02D830272F5501341F2C20
:103C100005D8B9F1000F2FD02D272F550134039669
:103C2000CDF808C001940095FFF76EFF05B0BDE820
:103C3000F083671E06D0B8F1100F01D03C46D8E7DC
:103C4000023CD6E73C46D4E716F0200FD4D11F2C17
:103C5000D2D878272F550134D4E716F0200FCED0D4
:103C60001F2CCCD858272F550134CBE71F2CC9D88F
:103C700062272F550134C5E716F0040F03D02B2718
:103C80002F550134CBE716F0080FC8D020272F5549
:103C90000134C4E72DE9F04190B0169D189FDDF87E
:103CA0006CC00DB92CF0100C1CF480661BD03DB319
:103CB000002618E01CF0200F1FD04FF0410E744476
:103CC000E4B20A3CE4B206F1010E0DF140084644AC
:103CD00006F8204CB5FBF7F4BD4213D3BEF11F0F1D
:103CE00010D876462546B5FBF7F407FB1454E4B22A
:103CF000092CDFD83034E4B2E5E74FF0610EDEE79F
:103D00004FF0000ECDF818C01A9C0594199C04942D
:103D100003979DF85C400294CDF804E008AC009451
:103D2000FFF72BFF10B0BDE8F08100002DE9F04F48
:103D30008BB00646069209930791002900F0AA82EB
:103D40000024099B1878002800F0A682252809D0B5
:103D5000651C069B22460799B047099B01330993CE
:103D60002C46EEE7013309934FF0000B2DE0A1F153
:103D70003003DBB2092B67D92A296AD04FF000093A
:103D8000099B1A782E2A74D04FF00008099A1378EC
:103D9000683B122B00F2AB80DFE813F09700A9001C
:103DA000A500A9008900A900A900A900A900A900EF
:103DB000A900A900A900A900A900A900A900A900BB
:103DC00006014BF0010B01330993099B1978A1F10E
:103DD0002002102ACBD801A050F822F0353E00086E
:103DE0006F3D00086F3D00083F3E00086F3D000832
:103DF0006F3D00086F3D00086F3D00086F3D0008F3
:103E00006F3D00086F3D00082B3E00086F3D000825
:103E1000213E00086F3D00086F3D0008C33D0008CB
:103E20004BF0020B01330993CFE74BF0040B013346
:103E30000993CAE74BF0080B01330993C5E74BF030
:103E4000100B01330993C0E709A8FFF74BFE814629
:103E500096E7149B1A1D14921B68002B04DB9946ED
:103E6000099B013309938BE74BF0020BC3F1000967
:103E7000F6E74BF4806B5A1C09925A78A2F1300392
:103E8000DBB2092B04D92A2A07D04FF000087DE7BE
:103E900009A8FFF727FE804678E7149B1A1D1492A5
:103EA0001B6823EAE378099B013309936EE74BF41F
:103EB0008071531C099352786C2A01D08B4616E00E
:103EC0004BF4407B0133099311E04BF08001531C0C
:103ED00009935278682A01D08B4608E04BF0C00B5A
:103EE0000133099303E04BF4007B01320992099BF3
:103EF0001878A0F12503532B00F2C281DFE813F0FC
:103F0000B501C001C001C001C001C001C001C001B4
:103F1000C001C001C001C001C001C001C001C00199
:103F2000C001C001C001C001C001C001C001C00189
:103F3000C001C001C001C001C001C001C001C00179
:103F4000C001C001C001C001C001C001C001C00169
:103F5000C001C001C001C001C001C001C001C00159
:103F6000C001C001C0015900C001C001C001C001B1
:103F7000C001C001C001C001C001590011015900B8
:103F8000C001C001C001C0015900C001C001C00191
:103F9000C001C00159009A01C001C0014301C00124
:103FA0005900C001C00159004BF4807B01320992D5
:103FB0009DE7782809D0582839D06F2839D0622851
:103FC00039D02BF0100B0A2300E01023582834D0EE
:103FD000692803D0642801D02BF00C0B1BF4806FF0
:103FE00001D02BF0010B69282AD0642828D01BF4BB
:103FF000007F47D11BF4807F70D11BF0400F00F091
:104000008380149A111D14911278CDF814B0CDF854
:104010001090CDF80C800293002301930092069B30
:10402000224607993046FFF735FE04462AE0102362
:10403000CCE70823CAE70223C8E74BF0200BC7E709
:104040001BF4007F1ED11BF4807F1FD11BF0400F9B
:1040500036D0149A111D1491127882EAE271A1EB04
:10406000E271CDF814B0CDF81090CDF80C80029329
:10407000D20F01920091069B224607993046FFF726
:1040800009FE0446099B013309935AE6149A111D4F
:104090001491126882EAE271A1EBE271CDF814B0DA
:1040A000CDF81090CDF80C800293D20F01920091C0
:1040B000069B224607993046FFF7ECFD0446E1E7F0
:1040C0001BF0800F05D0149A111D1491B2F9002035
:1040D000C3E7149A111D14911268BEE7149A111DBA
:1040E0001491CDF814B0CDF81090CDF80C80029357
:1040F0000023019313680093069B224607993046DC
:10410000FFF7C8FD0446BDE71BF0800F04D0149AEA
:10411000111D1491128878E7149A111D14911268D8
:1041200073E71BF0020B1DD001251498031D149397
:10413000671C069B224607990078B047BBF1000F29
:1041400013D1099B013309933C46FAE5541C069BA5
:1041500007992020B0472B4622465D1C9945F5D88B
:104160001446E2E701232246F7E73A4606E0571CE9
:10417000069B07992020B04725463A466C1CA94566
:10418000F5D81746DDE7149B1A1D14921F68B8F185
:10419000000F09D14FF0FF333D462A7832B15A1E45
:1041A00023B101351346F8E74346F5E7ED1B1BF451
:1041B000806A02D0454528BF45461BF0020308939C
:1041C00004D022464446A846554618E0224606E05A
:1041D000541C069B07992020B0475D46224605F1F6
:1041E000010BA945F4D84446D846554607E01C467D
:1041F000013702F1010B069B0799B0475A46387800
:1042000020B1002DF4D0631E002CF0D11446454699
:10421000089B53B9099B0133099392E5571C069BF0
:1042200007992020B04725463A466C1CA945F5D889
:104230001446EFE74BF02103149A111D14911268F4
:10424000059308230493CDF80C80102302930023D8
:1042500001930092069B224607993046FFF71AFD0C
:104260000446099B013309936BE5651C069B2246B6
:1042700007992520B047099B013309932C4660E537
:10428000651C069B22460799B047099B0133099399
:104290002C4656E5074E53E5069B9C4208D35A1E12
:1042A000069B07990020B04720460BB0BDE8F08F71
:1042B0002246F5E7D53A000800B9704708B5FCF783
:1042C00025F808BD0FB400B585B006AA52F8043B26
:1042D000039200924FF0FF3202A90448FFF726FD37
:1042E00005B05DF804EB04B0704700BFB9420008A8
:1042F0000EB400B584B005AA52F8043B03920092B4
:104300004FF0FF3201460448FFF710FD04B05DF89E
:1043100004EB03B0704700BFCD3A00080CB400B501
:1043200085B006AA52F8043B039200920A46014661
:104330000348FFF7FBFC05B05DF804EB02B07047E3
:10434000CD3A000800B585B0009103464FF0FF322A
:1043500003A90348FFF7EAFC05B05DF804FB00BFC2
:10436000B942000800B583B0009313460A460146DF
:104370000248FFF7DBFC03B05DF804FBCD3A000810
:104380000CB400B587B008AA52F8043B059203901C
:10439000049100924FF0FF3203A90448FFF7C6FCD6
:1043A00007B05DF804EB02B0704700BFD73A0008D1
:1043B0005374617274206D61696E28290A000000CF
:1043C000417474656D707420746F206572617365DB
:1043D0002066726F6D206C6261203D202564202A6A
:1043E00020353132620A0000577269746520323517
:1043F00036206279746520617420616464722025BE
:104400006400000053504920666C61736820697332
:104410002077726974652070726F74656374656467
:104420000A0000003E3E20002A2A2A204552524F10
:10443000523A20546F6F206D616E7920636F6E74F5
:10444000726F6C2063616C6C6261636B73202A2AEB
:104450002A200A002A2A2A204552524F523A205432
:104460006F6F206D616E7920636F6E666967206380
:10447000616C6C6261636B73202A2A2A0A00000057
:10448000080B0102020201060524001001052401A7
:10449000000204240200052406010200070585032A
:1044A0001000FF00000000000000000009040100EF
:1044B00001020201079C4400088844000813000020
:1044C000000000000902000003010080FAD445004A
:1044D0000800000007050302400001000000000082
:1044E00000000007058402400001000000000000F9
:1044F0000000000009040200020A000008D4440081
:10450000080000000000000000000000120100028E
:10451000EF02014009128519200201020301000087
:104520002573200020747970202578002C20726576
:1045300071202578000000002C2076616C20257801
:10454000257820002C2069647820257825782000A3
:104550002C206C656E202578257820002C2047457E
:10456000545F4445530A00005F4445560A0000006A
:104570005F4346470A0000005F5354520A000000A0
:104580005F494E460A0000005F454E500A00000099
:104590005F424F530A0000002C205345545F4144B2
:1045A00052202020200A00002C205345545F43460F
:1045B00047202020200A00002C0000002074797081
:1045C000652025780000000020696E64657820254C
:1045D0007800000000000000010000000000000062
:1045E000244600080000000001000000804400088C
:1045F000AC440008000000000100000000000000C2
:10460000F44400080705010240000000000000001B
:1046100000000007058202400000000000000000CA
:1046200000000000090400000208065005044600CE
:104630000800000000000000000000006D73635FD0
:1046400073657475700A0000322E31004461746124
:10465000204C6F6767657200426C61636B50696CD8
:104660006C0000007365745F6167677265676174F1
:10467000655F63616C6C6261636B0A002A2A2A20A1
:104680004552524F523A207365745F616767726595
:10469000676174655F63616C6C6261636B20666106
:1046A000696C6564202A2A2A0A0000004E6173742E
:1046B00020696E632E0000004E415300426C61631E
:1046C0006B2050696C6C204D53430000426C616359
:1046D0006B2050696C6C2053657269616C20506F5F
:1046E00072740000426C61636B2050696C6C2043F3
:1046F0004F4D4D00426C61636B2050696C6C2044DF
:10470000415441002A2A2A207573625F73657475CB
:1047100070206661696C6564202A2A2A200A0000DC
:1047200000000002008000000080000831323334B5
:104730003536373800800402200000002020202079
:104740002020202020202020202020202020202069
:104750002020202020202020700000000000000ADF
:10476000000000000000000000000000637573748A
:104770006F6D5F7573625F6D73635F696E69740AF5
:10478000000000002A2A2A20637573746F6D5F751C
:1047900073625F6D73635F696E6974206661696CD3
:1047A0006564202A2A2A0A006D73635F646174615C
:1047B0005F72785F636220777269746520657272D8
:1047C0006F72200A000000006D73635F64617461A2
:1047D0005F72785F63622072656164206572726FD8
:1047E00072200A006D73635F646174615F72785F49
:1047F0006362207772697465206572726F7220320D
:10480000200A00006D73635F646174615F74785F98
:1048100063622072656164206572726F720A0000C3
:104820006D73635F7365745F636F6E666967200A9B
:10483000000000002A2A2A206D73635F7365745F8D
:10484000636F6E666967206661696C6564202A2AF9
:104850002A0A00005342435F53454E53455F4B4580
:10486000595F494C4C4547414C5F52455155455362
:104870005420257820000000736373695F696E71AE
:1048800075697279206E6F74737570202578200AAF
:10489000000000002A2A2A206364635F7365747530
:1048A00070202A2A2A200A002A2A2A206364635FA9
:1048B0007365747570206661696C6564202A2A2AA4
:1048C000200A0000636F6D6D0A0000002A2A2A206A
:1048D00063646361636D5F636F6E74726F6C206E8F
:1048E0006F7473757070206C696E655F636F646957
:1048F0006E672025642C206C656E202564200A00DC
:104900005B202573205D200A000000002A2A2A204F
:1049100063646361636D5F7365745F636F6E666923
:1049200067202A2A2A0A00002A2A2A20636463614F
:10493000636D5F7365745F636F6E66696720666140
:10494000696C6564202A2A2A0A00000000C201005E
:1049500000000800555342204D6173732053746F5B
:104960007261676520436C617373206578616D7057
:104970006C652E200000000030313233343536377C
:10498000383941424344454600000000F9330008ED
:10499000493500089D350008C13600080937000870
:1049A0001D380008D737000879380008F9380008A2
:1049B000C1390008000000000000000000000000F5
:0849C0000002000400000006E3
:1049C800FFFF0000AC4600084C4600087C020020AF
:1049D800B8460008BC460008CC460008E446000873
:1049E800F4460008EB3C906D6B646F7366730000CF
:1049F800020401000200028000F8010020004000CB
:104A080000000000000000000000296917AD5352A3
:104A1800414D4449534B20202020464154313220F7
:104A28002020000041720061006D00640069000FE1
:104A3800000073006B002E00640061007400000029
:104A48000000000052414D4449534B20444154203A
:104A58000000CE01864186410000CE018641030058
:104A680000100000F8FFFF0040000560000780000C
:104A780009A0000BC0000DE0000F00011120011378
:104A8800400115600117800119A0011BC0011DE03C
:104A9800011F000221200223400225600227800214
:104AA80029A0022BC0022DE0022F0003312003337E
:104AB800400335600337800339A0033BC0033DE062
:104AC800033F000441200443400445600447800438
:104AD80049A0044BC0044DE0044F00055120055384
:104AE800400555600557800559A0055BC0055DE088
:104AF800055F00066120066340066560066780065C
:104B080069A0066BC0066DE0066F00077120077389
:104B1800400775600777800779A0077BC0077DE0AD
:104B2800077F0008812008FF0F0000000000000038
:104B3800000000000000000000000000000000006D
:104B4800000000000000000000000000000000005D
:104B5800000000000000000000000000000000004D
:104B68000000000000127A0000127A0000127A0099
:040000050800346556
:00000001FF
