:020000040800F2
:1000000000500020AD110008AB110008A911000834
:10001000A9110008A9110008A9110008000000009A
:10002000000000000000000000000000AB1100080C
:10003000AB11000800000000AB110008AB11000874
:10004000A9110008A9110008A9110008A9110008A8
:10005000A9110008A9110008A9110008A911000898
:10006000A9110008A9110008A9110008A911000888
:10007000A9110008A9110008A9110008A911000878
:10008000A9110008A9110008A9110008A911000868
:10009000A9110008A9110008A9110008A911000858
:1000A000A9110008A9110008A9110008A911000848
:1000B000A9110008A9110008A9110008A911000838
:1000C000A9110008A9110008A9110008A911000828
:1000D000A9110008A9110008A9110008A911000818
:1000E000A9110008A9110008A9110008A911000808
:1000F000A9110008A9110008A9110008A9110008F8
:10010000A9110008A9110008A9110008A9110008E7
:10011000A9110008A9110008A9110008A9110008D7
:10012000A9110008A9110008A9110008A9110008C7
:10013000A9110008A9110008A9110008A9110008B7
:10014000A9110008A9110008A9110008A9110008A7
:100150004FF40051014800F074BD00BF0010014091
:1001600030B58DB000F0FEF800F09AFD20B100F03F
:100170007FFD444801F048FB00F080FB00F09AF856
:10018000414800F021FA014610B1404801F03CFB23
:100190003F4800F0E3FA014610B13E4801F034FB5D
:1001A00009203B4B384CD87300F02AFB4FF4005128
:1001B000394800F040FD394B03AA5968186803C25A
:1001C00053F8080F05AA596803C2204600F04CF9FD
:1001D000EFF3108272B6324B013BFDD182F31088EF
:1001E000BFF36F8F03AA2146684600F053F9A31DA1
:1001F0001D4600210A23009AC4F80620BDF80420F9
:1002000062812289092A35D801B1228107A92548AE
:1002100000F090F90146244801F0F6FA142200217A
:1002200007A800F0F9FB05AA1749684600F032F963
:1002300000220A21009BC4F80630BDF80430AB80D0
:100240002389092B1AD802B1238107A9154800F088
:1002500071F90146154801F0D7FA154A136843F0C1
:100260000403136000F014FD00F00AFD30BF00200D
:100270000DB030BDB2FBF3F20121C3E7B3FBF1F3E4
:100280000122DEE740180008640100205018000831
:10029000500100206E1800080010014030180008BE
:1002A000808D5B006A0100208818000894180008FF
:1002B00010ED00E070B500F00BFE0024194D35F88C
:1002C000020B013400F04AFE072CF8D10025164C31
:1002D000A388E279A179206800F07CFC237A93B1AD
:1002E000EFF3108672B6206800F0B4FC237A014662
:1002F000012B0FD0022B11D0206800F0AEFC86F34A
:100300001088BFF36F8F0135052D04F10C04DFD188
:10031000002070BDA088014389B2EDE7A08821EAE2
:100320000001F9E77C0100208C01002010B5044693
:1003300038B100F0C1FB0138221820468242034642
:1003400000D810BD11781B784B4000F8013B1178A4
:100350004B4002F8013910F8011C4B4000F8013CF9
:10036000ECE700000122034B1A700022024B1A70C6
:10037000704700BF59040020080400201FB50B4C33
:1003800023788BB1204600F097FB58B10223CDE9CA
:100390000134074B03901B7823B1052301AA1846AB
:1003A0001146ABBE0023237004B010BD080400202A
:1003B0005904002070B5154C86B08DF80700204612
:1003C00000F07AFB451C4F2D0DF1070616D9FFF7FB
:1003D000D5FF0223CDE90336012305930C4B1B788F
:1003E00023B1052303AA18461146ABBE9DF807307A
:1003F0000A2B01D1FFF7C2FF06B070BD01223146C2
:10040000204600F087FB00236355EFE70804002037
:10041000590400200B0943EA0213120610B501F03B
:100420000F0112D5DB43494201F00F01C1EB41122C
:1004300001EB820101EB810189B2C3F30B0311B916
:100440000133C3F30B032D2207E0C1EB411201EB93
:1004500082012B2201EB810189B20488418063F380
:100460000B040480027110BD10B5084C204600F04A
:10047000B5F8CC21204600F0ECF84421204600F0ED
:10048000E8F80622024B1A7010BD00BF5C04002081
:100490005A0400202DE9F041244B16461A7886B004
:1004A000062A05460C463AD1214800F097F8552116
:1004B0001F4800F0CEF8DFF87880771E073617F86F
:1004C000011F404600F0C5F8B742F8D1BE211848D8
:1004D00000F0BFF80026DFF8588003AF404600F078
:1004E000ECF80136092E07F8010BF7D1104800F09F
:1004F00075F89DF80D209DF80C106846FFF78AFFEF
:10050000009AC4F80620BDF804206281D4F80620C1
:1005100063892A602846AB8006B0BDE8F0810022DE
:100520001A7054F8063F0360A388F3E75A040020CA
:100530005C040020F8B543880D463BBB30230B70AC
:1005400001232E22EA5402885E1CC2F30B02E91832
:10055000FAB99C1C3023AB550022037928462B5551
:100560002B195A70FFF7E2FE2846F8BDB1FBF4F3F1
:1005700004FB13133033AB5443880132B3FBF4F361
:100580004380418813460029F0D1DAE700220A248B
:10059000F7E70A26C5F1020702887C18C2F30B03AD
:1005A000B3FBF6F206FB1232303201F8012F03885A
:1005B000C3F30B02B2FBF6F262F30B030380C3F347
:1005C0000B03002BE8D1C7E70268034B1A6082884F
:1005D00018469A8000F027B85C04002070B50446E5
:1005E000EFF3108672B64FF47A658188006800F0E8
:1005F00022FB2B46013BFDD1A188206800F019FBAE
:100600004FF40C73013BFDD1A188206800F016FB6C
:10061000013DFDD186F31088BFF36F8F003018BF06
:100620000120404270BD10B581880446006800F08A
:1006300000FBF023013BFDD1A188206800F0FEFA09
:1006400020B12046BDE81040FFF7C8BF4FF0FF3093
:1006500010BD2DE9F84F05468A46EFF3108772B6B4
:1006600000244FF009094FF4C87B4FF028084AFADC
:1006700004F606F00106A988286800F0DCFA002ECE
:1006800014BF4FF434734FF48753B3FBF9F3013BBA
:10069000FDD1A988286800F0CCFA16B15B46013B71
:1006A000FDD14346013BFDD10134082CDFD187F356
:1006B0001088BFF36F8FBDE8F88F2DE9F84304462B
:1006C000EFF3108872B6002528272E464FF4C8791C
:1006D000A188206800F0AFFA3B46013BFDD1A1881C
:1006E000206800F0A6FA3B46013BFDD1A1882068B6
:1006F00000F0A4FA4B46013BFDD1003018BF0120A9
:10070000A840304306B23B46013BFDD10135082DE0
:10071000DED188F31088BFF36F8F70B2BDE8F88325
:1007200010B54FF400300C4600F04EFA094801F0C5
:100730006BF8012000F006FD40B1012000F0EAFC5A
:1007400000F0A2FC0146044801F05EF823699847D6
:10075000012010BDA1180008AD18000810B504460E
:1007600000F036FB60B100F005FD2148C46000F0E8
:10077000A9F8041E0BDA1F4801F046F8204610BD08
:10078000207800F011FC606800F06EFCEDE71A4B79
:100790001A682AB94AF6AA2218481A6001F034F8F1
:1007A000002000F099FC012000F096FC292000F0C8
:1007B00045FD0221292000F04FFD00214FF40030BB
:1007C00000F0D6F94FF4003000F0F0F9EFF31084A8
:1007D00072B6002000F09EFC012000F09BFC01207E
:1007E00000F05CFC84F31088BFF36F8FC6E700BF96
:1007F000C8010020BA180008046C0040D218000894
:1008000010B5044600F040FC044400F01FFC2046F4
:1008100000F0FEFBBDE8104000F00ABC08B572B65F
:10082000EFF305800549C0F30800103851F8303067
:1008300001EBC001984762B608BD00BFDC01002093
:100840000146014800F0E0BF0E19000870B50646E9
:1008500000244D6835B96CB93146BDE87040064892
:1008600000F0D2BF2B68E968304698470443E4B2F1
:100870002D69EFE770BD00BFF818000810B5EFF361
:10088000108472B64FF4A8724FF000614FF0005020
:1008900000F04CF800234FF00052084803F110011B
:1008A0000133442B42F82100F8D1054B1A6084F340
:1008B0001088BFF36F8F002010BD00BF1D08000817
:1008C00008ED00E038B508B900F0D6FC0368FBB1CC
:1008D0004368432B1FD8836803B300230361EFF3FE
:1008E000108572B60F4A416802EBC104636813B900
:1008F000606004E023461C69002CFBD118610A4BA0
:1009000042F8313085F31088BFF36F8F002038BD77
:100910004FF0FF30FBE76FF00100F8E76FF00200E7
:10092000F5E700BFDC0100204D080008844641EADD
:10093000000313F0030349D1403A23D30B6803604B
:100940004B6843608B688360CB68C3600B6903614D
:100950004B6943618B698361CB69C3610B6A036235
:100960004B6A43628B6A8362CB6AC3620B6B03631D
:100970004B6B43638B6B8363CB6BC3634030403102
:10098000403ADBD230320BD30B6803604B684360D4
:100990008B688360CB68C36010301031103AF3D29B
:1009A0000C3205D351F8043B40F8043B043AF9D229
:1009B000043208D0D2071CBF11F8013B00F8013BFC
:1009C00001D30B8803806046704700BF082A13D309
:1009D0008B07B1D010F00303AED0C3F10403D21AD9
:1009E000DB071CBF11F8013B00F8013BA4D331F831
:1009F000023B20F8023B9FE7043AD9D3013A11F8B1
:100A0000013B00F8013BF9D20B7803704B7843703F
:100A10008B78837060467047F0B4860746D0541ECA
:100A2000002A3CD0CAB2034602E014F1FF3436D3A8
:100A300003F8012B9D07F8D1032C29D9CDB245EA43
:100A400005250F2C45EA054533D9A4F110063609D2
:100A500003F1200707EB061703F1100242E90455E2
:100A600042E902551032BA42F8D1721C14F00C0F50
:100A700003EB021204F00F0613D0331F23F003031D
:100A80000433134442F8045B9342FBD106F00304A1
:100A90002CB1C9B21C4403F8011B9C42FBD1F0BC31
:100AA000704734461346002CF3D1F8E7144603464A
:100AB000C2E71A462646E0E720F0030110F00300E3
:100AC000C0F1000051F8043B00F1040C4FEACC0CDB
:100AD0006FF000021CBF22FA0CF213434FF0010C1E
:100AE0004CEA0C2C4CEA0C4CA3EB0C0222EA03025D
:100AF00012EACC1204BF51F8043B0430F4D0C2F126
:100B0000000102EA0102B2FA82F2C2F11F0200EB16
:100B1000D2007047830730B427D10468A4F10133B1
:100B200023EA040313F0803F034608D153F8045F1F
:100B3000A5F1013424EA050414F0803FF6D01C78B6
:100B40001CB113F8014F002CFBD101399D189D42B7
:100B500002F1FF3207D011F8014F03F8014B14B135
:100B6000002AF4D11A7030BC70470346E7E700BF93
:100B700001290CD011B1022911D070470A4A13681B
:100B800003431360536823EA000050607047064A2D
:100B9000136823EA0003136053681843F5E7024A19
:100BA00013680343F7E700BF08040140044B1A68C9
:100BB00002431A60034A136803431360704700BF7F
:100BC0000004014004040140014B1860704700BF5D
:100BD000140401402DE9F0414FF00F0C0025076887
:100BE000466843FA05F4E4071CD5072D94BFBE46BA
:100BF000B646ACB24FEA84048ABF203CA4B2A4B289
:100C00000CFA04F82EEA080804F1020E02FA0EFEAD
:100C100001FA04F44EEA040444EA0804072D94BFE0
:100C2000274626460135102DDBD107604660BDE81A
:100C3000F0810161704709040161704780680840D4
:100C40007047C36801EA030221EA030141EA024155
:100C500001617047806880B27047C16070470000D2
:100C6000024A136843F480731360704700700040B9
:100C7000024A136843F00803136070470070004095
:100C8000024A136843F00403136070470070004089
:100C9000024A136843F0020313607047007000407B
:100CA000024B1868C0F34000704700BF047000405A
:100CB000024A136843F080731360704700100240CB
:100CC000062822D8DFE800F004090E13181D1F00C3
:100CD0000F4B1868C0F3406070470D4B1868C0F3A5
:100CE000C06070470A4B1868C0F340707047084BEB
:100CF0001868C0F340407047054B1868C0F34000C7
:100D00007047044BF9E7044BF7E70020704700BF3A
:100D1000001002402010024024100240024608B594
:100D20001046FFF7CDFF0028FAD008BD06280CD8E2
:100D3000DFE800F004060C11161B1D00FFF7B8BF1A
:100D40000C4A136843F0806313607047094A1368C4
:100D500043F08053F8E7074A136843F48033F3E71E
:100D6000044A136843F00103EEE7034AF9E7034A34
:100D7000F7E700BF0010024020100240241002409C
:100D8000034A136823F0030318431060704700BF41
:100D900004100240034A136823F4701343EA8040AE
:100DA0001060704704100240034A136823F4803334
:100DB00043EA00401060704704100240034A136881
:100DC00023F4003343EA40401060704704100240AF
:100DD000024B186800F40040704700BF201002402A
:100DE000024A136843F40043136070472010024026
:100DF00006283DD8DFE800F03737372637041500DE
:100E00001C4B1A6842F001021A601A689007FCD560
:100E10001A6822F440721A601A6842F480721A60EA
:100E20007047154B1A6842F001021A601A68910760
:100E3000FCD5104B1A6822F440721A601A6842F40A
:100E40000072ECE70D4B1A6842F480321A601A689F
:100E50009203FCD5074B1A6822F440721A601A6894
:100E600042F44072DBE7034A136823F440731360D3
:100E7000704700BF201002402410024000100240C2
:100E8000034A136823F4404343EA803010607047FC
:100E900004100240034A136823F4605343EAC0205D
:100EA0001060704704100240034A136823F4E063A3
:100EB00043EA00201060704704100240034A1368A0
:100EC00023F0F00343EA0010106070470410024062
:100ED00008B50420FFF72AFF0420FFF71FFF0020BA
:100EE000FFF74EFF0320FFF721FF0320FFF716FF58
:100EF0000120FFF745FF0020FFF7E0FF0320FFF789
:100F0000BFFF0420FFF7D0FF0020FFF7C3FF022040
:100F100000F0B4F90720FFF73DFF0120FFF744FF81
:100F20000020FFF74BFFFFF7C3FE0020FFF7F6FEA0
:100F30000220FFF725FF044B044A05491360054AC8
:100F40001160054A136008BD00A24A04FC0300209A
:100F5000005125020004002004040020430900F091
:100F60001F02012003F1804303F504331968904008
:100F70000843186070470000044B1A689206FCD5BD
:100F80001A6842F010021A60704700BF042800403F
:100F9000044B1A6822F010021A601A689206FCD5F7
:100FA000704700BF0428004038B5044600254FF4C0
:100FB0006770FFF7D3FF40F29B30FFF7CFFFFFF7DB
:100FC0004FFE2046FFF714FF0D4C0E4B1D602560B1
:100FD000FFF706FFFFF7D0FF0B4B0C4A1D605D606B
:100FE0001D615D614FF6FF7313605360FFF7D0FF23
:100FF000236823F00803236023681B07FCD538BD52
:101000000428004000280040082800402028004014
:1010100008B5FFF7B1FF054B82B2000C1A6043F828
:10102000040CBDE80840FFF7B3BF00BF2428004010
:1010300008B5FFF7A1FF044A136843F002031360E9
:10104000BDE80840FFF7A4BF0028004008B5FFF73F
:1010500093FF044A136823F002031360BDE80840BD
:10106000FFF796BF0028004008B5FFF785FF054B46
:1010700082B2C0F303401A6043F8040CBDE8084094
:10108000FFF786BF0C280040034B186804331B6829
:1010900043EA0040704700BF1828004008B5FFF73A
:1010A0006BFF01280CD028B102280ED0BDE8084003
:1010B000FFF76EBF074A136843F001031360F5E7BB
:1010C000044A136843F00203F8E7024A136843F046
:1010D0000403F3E70028004008B5FFF74DFF01289F
:1010E0000CD028B102280ED0BDE80840FFF750BF51
:1010F000074A136823F001031360F5E7044A1368F5
:1011000023F00203F8E7024A136823F00403F3E72D
:1011100000280040012809D010B102280BD07047E8
:10112000074A136823F0010313607047044A1368E9
:1011300023F00203F8E7024A136823F00403F3E7FD
:1011400004280040012809D018B102280BD0002043
:101150007047074B186800F001007047044B18688F
:1011600000F002007047024B186800F0040070475E
:101170000428004008B54FF46770FFF7EFFE40F217
:101180009B30FFF7EBFEFFF76BFD064B1A6822F072
:1011900008021A601A681107FCD51A689206FCD575
:1011A00008BD00BF04280040FEE7704738B5184A64
:1011B000184B19498B4217D30021184A934218D370
:1011C000174A184C1368184D43F400731360AC426F
:1011D00012D3164C164DAC4212D3FEF7C1FF154C7C
:1011E000154DAC4210D338BD52F8040B43F8040B34
:1011F000E0E743F8041BE1E754F8043B9847E6E7CF
:1012000054F8043B9847E6E754F8043B9847E8E76E
:101210003019000850010020080400206404002058
:1012200014ED00E0301900083019000830190008EA
:10123000301900083019000830190008012243094C
:101240009B0003F1604300F01F0003F5614302FAC5
:1012500000F0186070470000432893BF00F1604021
:10126000044B00F00F0000F564408CBFC1540170C6
:10127000704700BF14ED00E0FEE70000034A13686A
:1012800023F0070318431060704700BF002002409E
:1012900070472DE9F04F8BB00F461499834698465E
:1012A000DDE9185316469DF854E0169809B923F065
:1012B000100313F48062009200D0A1B313F0200F4A
:1012C0004FF0000414BF4FF0370A4FF0570A0DF1EA
:1012D0000809B1FBF0FC00FB1C1C5FFA8CF2BCF1AE
:1012E000090F94BF30325244D2B2814209F8012B27
:1012F00004F10104B1FBF0F201D3202C11D113F061
:101300000202019220D103F001023DB132B1BEF1DF
:10131000000F02D113F00C0F00D0013D4FF0300C44
:1013200007E01146D5E70C46E9E702A901F804C039
:1013300001341799A14201D9202CF6D130211AB1DC
:10134000A54201D91F2C42D9DA0620D5009A002ADD
:1013500044D1002C42D0179AA24201D0AC423DD1D8
:10136000621E3AD0102849D1023C980640D41F2C66
:1013700018D878210AAA224402F8201C01341F2C14
:1013800010D830210AAA224402F8201C01341F2C54
:1013900008D8BEF1000F33D02D210AAA224402F84A
:1013A000201C01349B07324642D004EB020A50460F
:1013B000AAEB0402002C3ED1019B2BB1AAEB060A3A
:1013C000AA4506EB0A003DD30BB0BDE8F08F0DF146
:1013D000080C0CF804100134B1E714461028C4D0EE
:1013E0000228CCD11F2CDDD80AAA22446221C3E7EF
:1013F0001F2CD7D80AAA22445821BDE71446EFE78C
:10140000590703D50AAA22442B21C8E71A07C9D5D0
:101410000AAA22442021C2E702F1010943463946C3
:101420002020D8474A460AEB02039D42F4D8BCE785
:10143000A4EB060AF7E7013C02A843463946005DE3
:10144000D847B4E70246434639462020D8470AF138
:10145000010AB5E708B1FEF7ADBF70472DE9F04FBF
:101460001F46B64BB1F10009904614BF83469B4618
:1014700000258BB0149E387860B945452CBF08F123
:10148000FF322A46434649460020D84728460BB03B
:10149000BDE8F08F252807F1010706D02A466C1C0D
:1014A00043464946D8472546E5E7002306E02D2A6E
:1014B00015D0302A0CD143F001030F46394611F8FC
:1014C000012B2B2A0ED0F2D8202A0ED0232A0FD09F
:1014D000A2F13000092829D80022069212E043F038
:1014E0000203EAE743F00403E7E743F00803E4E715
:1014F00043F01003E1E70A240F46069804FB00229C
:10150000303A0692394611F8012BA2F13000092831
:10151000F1D93A782E2A43D179787A1CA1F130009A
:10152000092843F4806332D8002413E02A2A09D121
:1015300056F8042B0F46002ABCBF524243F0020368
:101540000692E6E700220692E3E70A2202FB041471
:101550000246303C104610F8011BA1F13007092F5C
:10156000F3D917463A4612F8011B6A2931D019D827
:10157000682925D03A46174617F8010B69283CD050
:1015800062D8622828D1022123F00C033DE02A29E9
:1015900005D156F8044B023724EAE474E2E7174613
:1015A0000024DFE76C2904D07A29E3D143F4807367
:1015B000E1E779786C29F9D143F44073BA1CDAE792
:1015C0007978682902D043F08003D4E743F0C00360
:1015D000F4E743F40073CEE709D825283FF45EAF63
:1015E00058287FF45BAF43F020031021CCE7632839
:1015F00000F0838064287FF451AF692823F0100342
:101600004FF00A0101D06428BED15A0548BF23F02B
:101610000103692803F4007201D0642844D1002A30
:101620007FF429AFDA0506F1040A33D53268059351
:10163000069B002ACDE903434FEAD273029101933E
:10164000B8BF524200923EE0732800F08A801BD857
:101650006F2801D1082197E770287FF41FAF43F06E
:101660002103059308231022CDE903430023CDE98C
:10167000013256F8043B2A460093494643465846F1
:10168000FFF707FE0546F6E67528B6D078287FF402
:1016900005AFAAE713F0400F326801D0D2B2C6E717
:1016A0001E0648BF12B2C2E7002A7FF4E4AED80596
:1016B00006F1040A10D50593069BCDE90121CDE979
:1016C0000343336800932A46434649465846FFF78A
:1016D000E0FD05465646CEE613F0400F326808D0CE
:1016E000D2B20593069B0291CDE9034300230193F7
:1016F000A8E7180648BF92B2F3E713F002042ED011
:1017000001232A46079356F8040B43464946C0B2C4
:10171000551CD847002C3FF4AEAEDDE906329342AB
:101720007FF6A9AE43462A4649462020D847079B64
:101730006C1C013307932546EFE700BF91120008A8
:10174000434649462020D8470AF102030793069BE7
:1017500005EB0A020AF1010A9A45F1D3D3E7A24642
:10176000F2E7B246002C5AF8046B14BF21464FF042
:10177000FF3132463144107808B18A4210D113F457
:101780008061A2EB0602089102D0A24228BF224645
:1017900013F00203099311D007922A46951B14E017
:1017A0000132E8E7434649462020D847079B591CA9
:1017B00007910699EA189942F4D8EFE71346AD1A53
:1017C000F5E71C4643464946D847AA1916F8010BC7
:1017D00028B1089B002BF5D0631E002CF1D1099B8A
:1017E0001546002B3FF476AF079B9C1A06E02A466D
:1017F0006E1C434649462020D8473546069A631951
:101800009342F4D366E700BF0FB41FB506AA52F89F
:10181000043B02A90392009204484FF0FF32FFF705
:101820001DFE05B05DF804EB04B0704755140008C8
:1018300028C6195A3020013E28818D4E3020015093
:101840004177616B652066726F6D205342200A00FC
:1018500043616E277420696E697469616C697A6589
:1018600020647331386232303A2025640A004361C3
:101870006E277420696E697469616C697A6520529B
:1018800054433A2025640A0054656D7031203D2090
:101890002573200054656D7032203D202573200A89
:1018A00000414C41524D20212121200A00414C4150
:1018B000524D2061742025640A00556E61626C658A
:1018C00020726571756573742052544320495251DA
:1018D0000A00537769746368656E204F4E2066690D
:1018E0007273742074696D650A007274635F616C51
:1018F00061726D5F697372004952512025643A200C
:101900006E6F626F64792063617265640A00756E40
:101910006578706563746564204952512074726102
:101920007020617420766563746F722025640A00EC
:101930000500000000800000000000000000000022
:1019400051010008000C01400004000000000000EC
:10195000000000000000000000000000040302037B
:101960000C030203970303038003000000100140EF
:101970000020020000000000000C014000040101F2
:1019800000000000000801400010010000000000FD
:1019900000080140B0000302000000000008014000
:1019A000400000020000000021070008290000009C
:1019B000EA180008000000000000000041080008CC
:1019C0000000000041080008000000004108000875
:1019D0000000000041080008000000004108000865
:1019E0000000000041080008000000004108000855
:1019F0000000000041080008000000004108000845
:101A00000000000041080008000000004108000834
:101A10000000000041080008000000004108000824
:101A20000000000041080008000000004108000814
:101A30000000000041080008000000004108000804
:101A400000000000410800080000000041080008F4
:101A500000000000410800080000000041080008E4
:101A600000000000410800080000000041080008D4
:101A700000000000410800080000000041080008C4
:101A800000000000410800080000000041080008B4
:101A900000000000410800080000000041080008A4
:101AA0000000000041080008000000004108000894
:101AB0000000000041080008000000004108000884
:101AC0000000000041080008000000004108000874
:101AD0000000000041080008000000004108000864
:101AE0000000000041080008000000004108000854
:101AF0000000000041080008000000004108000844
:101B00000000000041080008000000004108000833
:101B10000000000041080008000000004108000823
:101B20000000000041080008000000004108000813
:101B30000000000041080008000000004108000803
:101B400000000000410800080000000041080008F3
:101B500000000000410800080000000041080008E3
:101B600000000000410800080000000041080008D3
:101B700000000000410800080000000041080008C3
:101B800000000000410800080000000041080008B3
:101B900000000000410800080000000041080008A3
:101BA0000000000041080008000000004108000893
:101BB0000000000041080008000000004108000883
:101BC0000000000041080008000000004108000873
:101BD00000000000410800080000000000127A0028
:081BE00000127A0000127A00E5
:04000005080011AD31
:00000001FF
